{"abi":[{"inputs":[],"stateMutability":"nonpayable","type":"constructor"},{"inputs":[{"internalType":"address","name":"campainAddress","type":"address"}],"name":"contributeCampain","outputs":[],"stateMutability":"payable","type":"function"},{"inputs":[{"internalType":"string","name":"Name","type":"string"},{"internalType":"string","name":"Description","type":"string"},{"internalType":"uint256","name":"RequiredAmount","type":"uint256"}],"name":"createProject","outputs":[],"stateMutability":"nonpayable","type":"function"},{"inputs":[],"name":"manager","outputs":[{"internalType":"address","name":"","type":"address"}],"stateMutability":"view","type":"function"},{"inputs":[{"internalType":"uint256","name":"","type":"uint256"}],"name":"members","outputs":[{"internalType":"address","name":"","type":"address"}],"stateMutability":"view","type":"function"},{"inputs":[],"name":"viewAllCreators","outputs":[{"internalType":"address[]","name":"","type":"address[]"}],"stateMutability":"view","type":"function"},{"inputs":[],"name":"viewProjects","outputs":[{"components":[{"internalType":"address","name":"Creator","type":"address"},{"internalType":"string","name":"Name","type":"string"},{"internalType":"string","name":"Description","type":"string"},{"internalType":"uint256","name":"RequiredAmount","type":"uint256"},{"internalType":"uint256","name":"ReceiveAmount","type":"uint256"}],"internalType":"struct crowedFunding.Campain[]","name":"","type":"tuple[]"}],"stateMutability":"view","type":"function"}],"devdoc":{"kind":"dev","methods":{},"version":1},"evm":{"assembly":"    /* \"Lottery.sol\":27:1827  contract crowedFunding{\r... */\n  mstore(0x40, 0x80)\n    /* \"Lottery.sol\":148:201  constructor (){\r... */\n  callvalue\n  dup1\n  iszero\n  tag_1\n  jumpi\n  0x00\n  dup1\n  revert\ntag_1:\n  pop\n    /* \"Lottery.sol\":183:193  msg.sender */\n  caller\n    /* \"Lottery.sol\":173:180  manager */\n  0x00\n  dup1\n    /* \"Lottery.sol\":173:193  manager = msg.sender */\n  0x0100\n  exp\n  dup2\n  sload\n  dup2\n  0xffffffffffffffffffffffffffffffffffffffff\n  mul\n  not\n  and\n  swap1\n  dup4\n  0xffffffffffffffffffffffffffffffffffffffff\n  and\n  mul\n  or\n  swap1\n  sstore\n  pop\n    /* \"Lottery.sol\":27:1827  contract crowedFunding{\r... */\n  dataSize(sub_0)\n  dup1\n  dataOffset(sub_0)\n  0x00\n  codecopy\n  0x00\n  return\nstop\n\nsub_0: assembly {\n        /* \"Lottery.sol\":27:1827  contract crowedFunding{\r... */\n      mstore(0x40, 0x80)\n      jumpi(tag_1, lt(calldatasize, 0x04))\n      shr(0xe0, calldataload(0x00))\n      dup1\n      0x23c55448\n      eq\n      tag_2\n      jumpi\n      dup1\n      0x310f9411\n      eq\n      tag_3\n      jumpi\n      dup1\n      0x481c6a75\n      eq\n      tag_4\n      jumpi\n      dup1\n      0x5daf08ca\n      eq\n      tag_5\n      jumpi\n      dup1\n      0xd62f2091\n      eq\n      tag_6\n      jumpi\n      dup1\n      0xdf2373a1\n      eq\n      tag_7\n      jumpi\n    tag_1:\n      0x00\n      dup1\n      revert\n        /* \"Lottery.sol\":385:787  function createProject(string memory Name, string memory Description, uint256 RequiredAmount) public checkCreatorType {\r... */\n    tag_2:\n      callvalue\n      dup1\n      iszero\n      tag_8\n      jumpi\n      0x00\n      dup1\n      revert\n    tag_8:\n      pop\n      tag_9\n      0x04\n      dup1\n      calldatasize\n      sub\n      dup2\n      add\n      swap1\n      tag_10\n      swap2\n      swap1\n      tag_11\n      jump\t// in\n    tag_10:\n      tag_12\n      jump\t// in\n    tag_9:\n      stop\n        /* \"Lottery.sol\":799:899  function viewProjects() public view returns(Campain[] memory){\r... */\n    tag_3:\n      callvalue\n      dup1\n      iszero\n      tag_13\n      jumpi\n      0x00\n      dup1\n      revert\n    tag_13:\n      pop\n      tag_14\n      tag_15\n      jump\t// in\n    tag_14:\n      mload(0x40)\n      tag_16\n      swap2\n      swap1\n      tag_17\n      jump\t// in\n    tag_16:\n      mload(0x40)\n      dup1\n      swap2\n      sub\n      swap1\n      return\n        /* \"Lottery.sol\":56:78  address public manager */\n    tag_4:\n      callvalue\n      dup1\n      iszero\n      tag_18\n      jumpi\n      0x00\n      dup1\n      revert\n    tag_18:\n      pop\n      tag_19\n      tag_20\n      jump\t// in\n    tag_19:\n      mload(0x40)\n      tag_21\n      swap2\n      swap1\n      tag_22\n      jump\t// in\n    tag_21:\n      mload(0x40)\n      dup1\n      swap2\n      sub\n      swap1\n      return\n        /* \"Lottery.sol\":85:109  address[] public members */\n    tag_5:\n      callvalue\n      dup1\n      iszero\n      tag_23\n      jumpi\n      0x00\n      dup1\n      revert\n    tag_23:\n      pop\n      tag_24\n      0x04\n      dup1\n      calldatasize\n      sub\n      dup2\n      add\n      swap1\n      tag_25\n      swap2\n      swap1\n      tag_26\n      jump\t// in\n    tag_25:\n      tag_27\n      jump\t// in\n    tag_24:\n      mload(0x40)\n      tag_28\n      swap2\n      swap1\n      tag_22\n      jump\t// in\n    tag_28:\n      mload(0x40)\n      dup1\n      swap2\n      sub\n      swap1\n      return\n        /* \"Lottery.sol\":911:1008  function viewAllCreators() public view returns(address[] memory){\r... */\n    tag_6:\n      callvalue\n      dup1\n      iszero\n      tag_29\n      jumpi\n      0x00\n      dup1\n      revert\n    tag_29:\n      pop\n      tag_30\n      tag_31\n      jump\t// in\n    tag_30:\n      mload(0x40)\n      tag_32\n      swap2\n      swap1\n      tag_33\n      jump\t// in\n    tag_32:\n      mload(0x40)\n      dup1\n      swap2\n      sub\n      swap1\n      return\n        /* \"Lottery.sol\":1020:1535  function contributeCampain(address campainAddress) payable public contribution {\r... */\n    tag_7:\n      tag_34\n      0x04\n      dup1\n      calldatasize\n      sub\n      dup2\n      add\n      swap1\n      tag_35\n      swap2\n      swap1\n      tag_36\n      jump\t// in\n    tag_35:\n      tag_37\n      jump\t// in\n    tag_34:\n      stop\n        /* \"Lottery.sol\":385:787  function createProject(string memory Name, string memory Description, uint256 RequiredAmount) public checkCreatorType {\r... */\n    tag_12:\n        /* \"Lottery.sol\":1762:1769  manager */\n      0x00\n      dup1\n      sload\n      swap1\n      0x0100\n      exp\n      swap1\n      div\n      0xffffffffffffffffffffffffffffffffffffffff\n      and\n        /* \"Lottery.sol\":1748:1769  msg.sender != manager */\n      0xffffffffffffffffffffffffffffffffffffffff\n      and\n        /* \"Lottery.sol\":1748:1758  msg.sender */\n      caller\n        /* \"Lottery.sol\":1748:1769  msg.sender != manager */\n      0xffffffffffffffffffffffffffffffffffffffff\n      and\n      eq\n      iszero\n        /* \"Lottery.sol\":1740:1804  require(msg.sender != manager, \"Manager can not create Campain\") */\n      tag_39\n      jumpi\n      mload(0x40)\n      0x08c379a000000000000000000000000000000000000000000000000000000000\n      dup2\n      mstore\n      0x04\n      add\n      tag_40\n      swap1\n      tag_41\n      jump\t// in\n    tag_40:\n      mload(0x40)\n      dup1\n      swap2\n      sub\n      swap1\n      revert\n    tag_39:\n        /* \"Lottery.sol\":548:555  1 ether */\n      0x0de0b6b3a7640000\n        /* \"Lottery.sol\":531:545  RequiredAmount */\n      dup2\n        /* \"Lottery.sol\":531:555  RequiredAmount * 1 ether */\n      tag_43\n      swap2\n      swap1\n      tag_44\n      jump\t// in\n    tag_43:\n        /* \"Lottery.sol\":514:555  RequiredAmount = RequiredAmount * 1 ether */\n      swap1\n      pop\n        /* \"Lottery.sol\":566:587  uint256 ReceiveAmount */\n      0x00\n        /* \"Lottery.sol\":612:634  Campain memory project */\n      dup1\n        /* \"Lottery.sol\":637:706  Campain(msg.sender, Name, Description, RequiredAmount, ReceiveAmount) */\n      mload(0x40)\n      dup1\n      0xa0\n      add\n      0x40\n      mstore\n      dup1\n        /* \"Lottery.sol\":645:655  msg.sender */\n      caller\n        /* \"Lottery.sol\":637:706  Campain(msg.sender, Name, Description, RequiredAmount, ReceiveAmount) */\n      0xffffffffffffffffffffffffffffffffffffffff\n      and\n      dup2\n      mstore\n      0x20\n      add\n        /* \"Lottery.sol\":657:661  Name */\n      dup7\n        /* \"Lottery.sol\":637:706  Campain(msg.sender, Name, Description, RequiredAmount, ReceiveAmount) */\n      dup2\n      mstore\n      0x20\n      add\n        /* \"Lottery.sol\":663:674  Description */\n      dup6\n        /* \"Lottery.sol\":637:706  Campain(msg.sender, Name, Description, RequiredAmount, ReceiveAmount) */\n      dup2\n      mstore\n      0x20\n      add\n        /* \"Lottery.sol\":676:690  RequiredAmount */\n      dup5\n        /* \"Lottery.sol\":637:706  Campain(msg.sender, Name, Description, RequiredAmount, ReceiveAmount) */\n      dup2\n      mstore\n      0x20\n      add\n        /* \"Lottery.sol\":692:705  ReceiveAmount */\n      dup4\n        /* \"Lottery.sol\":637:706  Campain(msg.sender, Name, Description, RequiredAmount, ReceiveAmount) */\n      dup2\n      mstore\n      pop\n        /* \"Lottery.sol\":612:706  Campain memory project = Campain(msg.sender, Name, Description, RequiredAmount, ReceiveAmount) */\n      swap1\n      pop\n        /* \"Lottery.sol\":717:730  listOfProject */\n      0x02\n        /* \"Lottery.sol\":736:743  project */\n      dup2\n        /* \"Lottery.sol\":717:744  listOfProject.push(project) */\n      swap1\n      dup1\n      0x01\n      dup2\n      sload\n      add\n      dup1\n      dup3\n      sstore\n      dup1\n      swap2\n      pop\n      pop\n      0x01\n      swap1\n      sub\n      swap1\n      0x00\n      mstore\n      keccak256(0x00, 0x20)\n      swap1\n      0x05\n      mul\n      add\n      0x00\n      swap1\n      swap2\n      swap1\n      swap2\n      swap1\n      swap2\n      pop\n      0x00\n      dup3\n      add\n      mload\n      dup2\n      0x00\n      add\n      exp(0x0100, 0x00)\n      dup2\n      sload\n      dup2\n      0xffffffffffffffffffffffffffffffffffffffff\n      mul\n      not\n      and\n      swap1\n      dup4\n      0xffffffffffffffffffffffffffffffffffffffff\n      and\n      mul\n      or\n      swap1\n      sstore\n      pop\n      0x20\n      dup3\n      add\n      mload\n      dup2\n      0x01\n      add\n      swap1\n      dup1\n      mload\n      swap1\n      0x20\n      add\n      swap1\n      tag_46\n      swap3\n      swap2\n      swap1\n      tag_47\n      jump\t// in\n    tag_46:\n      pop\n      0x40\n      dup3\n      add\n      mload\n      dup2\n      0x02\n      add\n      swap1\n      dup1\n      mload\n      swap1\n      0x20\n      add\n      swap1\n      tag_48\n      swap3\n      swap2\n      swap1\n      tag_47\n      jump\t// in\n    tag_48:\n      pop\n      0x60\n      dup3\n      add\n      mload\n      dup2\n      0x03\n      add\n      sstore\n      0x80\n      dup3\n      add\n      mload\n      dup2\n      0x04\n      add\n      sstore\n      pop\n      pop\n        /* \"Lottery.sol\":755:762  members */\n      0x01\n        /* \"Lottery.sol\":768:778  msg.sender */\n      caller\n        /* \"Lottery.sol\":755:779  members.push(msg.sender) */\n      swap1\n      dup1\n      0x01\n      dup2\n      sload\n      add\n      dup1\n      dup3\n      sstore\n      dup1\n      swap2\n      pop\n      pop\n      0x01\n      swap1\n      sub\n      swap1\n      0x00\n      mstore\n      keccak256(0x00, 0x20)\n      add\n      0x00\n      swap1\n      swap2\n      swap1\n      swap2\n      swap1\n      swap2\n      0x0100\n      exp\n      dup2\n      sload\n      dup2\n      0xffffffffffffffffffffffffffffffffffffffff\n      mul\n      not\n      and\n      swap1\n      dup4\n      0xffffffffffffffffffffffffffffffffffffffff\n      and\n      mul\n      or\n      swap1\n      sstore\n      pop\n        /* \"Lottery.sol\":1815:1816  _ */\n      pop\n      pop\n        /* \"Lottery.sol\":385:787  function createProject(string memory Name, string memory Description, uint256 RequiredAmount) public checkCreatorType {\r... */\n      pop\n      pop\n      pop\n      jump\t// out\n        /* \"Lottery.sol\":799:899  function viewProjects() public view returns(Campain[] memory){\r... */\n    tag_15:\n        /* \"Lottery.sol\":843:859  Campain[] memory */\n      0x60\n        /* \"Lottery.sol\":878:891  listOfProject */\n      0x02\n        /* \"Lottery.sol\":871:891  return listOfProject */\n      dup1\n      sload\n      dup1\n      0x20\n      mul\n      0x20\n      add\n      mload(0x40)\n      swap1\n      dup2\n      add\n      0x40\n      mstore\n      dup1\n      swap3\n      swap2\n      swap1\n      dup2\n      dup2\n      mstore\n      0x20\n      add\n      0x00\n      swap1\n    tag_51:\n      dup3\n      dup3\n      lt\n      iszero\n      tag_52\n      jumpi\n      dup4\n      dup3\n      swap1\n      0x00\n      mstore\n      keccak256(0x00, 0x20)\n      swap1\n      0x05\n      mul\n      add\n      mload(0x40)\n      dup1\n      0xa0\n      add\n      0x40\n      mstore\n      swap1\n      dup2\n      0x00\n      dup3\n      add\n      0x00\n      swap1\n      sload\n      swap1\n      0x0100\n      exp\n      swap1\n      div\n      0xffffffffffffffffffffffffffffffffffffffff\n      and\n      0xffffffffffffffffffffffffffffffffffffffff\n      and\n      0xffffffffffffffffffffffffffffffffffffffff\n      and\n      dup2\n      mstore\n      0x20\n      add\n      0x01\n      dup3\n      add\n      dup1\n      sload\n      tag_54\n      swap1\n      tag_55\n      jump\t// in\n    tag_54:\n      dup1\n      0x1f\n      add\n      0x20\n      dup1\n      swap2\n      div\n      mul\n      0x20\n      add\n      mload(0x40)\n      swap1\n      dup2\n      add\n      0x40\n      mstore\n      dup1\n      swap3\n      swap2\n      swap1\n      dup2\n      dup2\n      mstore\n      0x20\n      add\n      dup3\n      dup1\n      sload\n      tag_56\n      swap1\n      tag_55\n      jump\t// in\n    tag_56:\n      dup1\n      iszero\n      tag_57\n      jumpi\n      dup1\n      0x1f\n      lt\n      tag_58\n      jumpi\n      0x0100\n      dup1\n      dup4\n      sload\n      div\n      mul\n      dup4\n      mstore\n      swap2\n      0x20\n      add\n      swap2\n      jump(tag_57)\n    tag_58:\n      dup3\n      add\n      swap2\n      swap1\n      0x00\n      mstore\n      keccak256(0x00, 0x20)\n      swap1\n    tag_59:\n      dup2\n      sload\n      dup2\n      mstore\n      swap1\n      0x01\n      add\n      swap1\n      0x20\n      add\n      dup1\n      dup4\n      gt\n      tag_59\n      jumpi\n      dup3\n      swap1\n      sub\n      0x1f\n      and\n      dup3\n      add\n      swap2\n    tag_57:\n      pop\n      pop\n      pop\n      pop\n      pop\n      dup2\n      mstore\n      0x20\n      add\n      0x02\n      dup3\n      add\n      dup1\n      sload\n      tag_60\n      swap1\n      tag_55\n      jump\t// in\n    tag_60:\n      dup1\n      0x1f\n      add\n      0x20\n      dup1\n      swap2\n      div\n      mul\n      0x20\n      add\n      mload(0x40)\n      swap1\n      dup2\n      add\n      0x40\n      mstore\n      dup1\n      swap3\n      swap2\n      swap1\n      dup2\n      dup2\n      mstore\n      0x20\n      add\n      dup3\n      dup1\n      sload\n      tag_61\n      swap1\n      tag_55\n      jump\t// in\n    tag_61:\n      dup1\n      iszero\n      tag_62\n      jumpi\n      dup1\n      0x1f\n      lt\n      tag_63\n      jumpi\n      0x0100\n      dup1\n      dup4\n      sload\n      div\n      mul\n      dup4\n      mstore\n      swap2\n      0x20\n      add\n      swap2\n      jump(tag_62)\n    tag_63:\n      dup3\n      add\n      swap2\n      swap1\n      0x00\n      mstore\n      keccak256(0x00, 0x20)\n      swap1\n    tag_64:\n      dup2\n      sload\n      dup2\n      mstore\n      swap1\n      0x01\n      add\n      swap1\n      0x20\n      add\n      dup1\n      dup4\n      gt\n      tag_64\n      jumpi\n      dup3\n      swap1\n      sub\n      0x1f\n      and\n      dup3\n      add\n      swap2\n    tag_62:\n      pop\n      pop\n      pop\n      pop\n      pop\n      dup2\n      mstore\n      0x20\n      add\n      0x03\n      dup3\n      add\n      sload\n      dup2\n      mstore\n      0x20\n      add\n      0x04\n      dup3\n      add\n      sload\n      dup2\n      mstore\n      pop\n      pop\n      dup2\n      mstore\n      0x20\n      add\n      swap1\n      0x01\n      add\n      swap1\n      jump(tag_51)\n    tag_52:\n      pop\n      pop\n      pop\n      pop\n      swap1\n      pop\n        /* \"Lottery.sol\":799:899  function viewProjects() public view returns(Campain[] memory){\r... */\n      swap1\n      jump\t// out\n        /* \"Lottery.sol\":56:78  address public manager */\n    tag_20:\n      0x00\n      dup1\n      sload\n      swap1\n      0x0100\n      exp\n      swap1\n      div\n      0xffffffffffffffffffffffffffffffffffffffff\n      and\n      dup2\n      jump\t// out\n        /* \"Lottery.sol\":85:109  address[] public members */\n    tag_27:\n      0x01\n      dup2\n      dup2\n      sload\n      dup2\n      lt\n      tag_65\n      jumpi\n      0x00\n      dup1\n      revert\n    tag_65:\n      swap1\n      0x00\n      mstore\n      keccak256(0x00, 0x20)\n      add\n      0x00\n      swap2\n      pop\n      sload\n      swap1\n      0x0100\n      exp\n      swap1\n      div\n      0xffffffffffffffffffffffffffffffffffffffff\n      and\n      dup2\n      jump\t// out\n        /* \"Lottery.sol\":911:1008  function viewAllCreators() public view returns(address[] memory){\r... */\n    tag_31:\n        /* \"Lottery.sol\":958:974  address[] memory */\n      0x60\n        /* \"Lottery.sol\":993:1000  members */\n      0x01\n        /* \"Lottery.sol\":986:1000  return members */\n      dup1\n      sload\n      dup1\n      0x20\n      mul\n      0x20\n      add\n      mload(0x40)\n      swap1\n      dup2\n      add\n      0x40\n      mstore\n      dup1\n      swap3\n      swap2\n      swap1\n      dup2\n      dup2\n      mstore\n      0x20\n      add\n      dup3\n      dup1\n      sload\n      dup1\n      iszero\n      tag_68\n      jumpi\n      0x20\n      mul\n      dup3\n      add\n      swap2\n      swap1\n      0x00\n      mstore\n      keccak256(0x00, 0x20)\n      swap1\n    tag_69:\n      dup2\n      0x00\n      swap1\n      sload\n      swap1\n      0x0100\n      exp\n      swap1\n      div\n      0xffffffffffffffffffffffffffffffffffffffff\n      and\n      0xffffffffffffffffffffffffffffffffffffffff\n      and\n      dup2\n      mstore\n      0x20\n      add\n      swap1\n      0x01\n      add\n      swap1\n      dup1\n      dup4\n      gt\n      tag_69\n      jumpi\n    tag_68:\n      pop\n      pop\n      pop\n      pop\n      pop\n      swap1\n      pop\n        /* \"Lottery.sol\":911:1008  function viewAllCreators() public view returns(address[] memory){\r... */\n      swap1\n      jump\t// out\n        /* \"Lottery.sol\":1020:1535  function contributeCampain(address campainAddress) payable public contribution {\r... */\n    tag_37:\n        /* \"Lottery.sol\":1616:1623  1 ether */\n      0x0de0b6b3a7640000\n        /* \"Lottery.sol\":1603:1612  msg.value */\n      callvalue\n        /* \"Lottery.sol\":1603:1623  msg.value >= 1 ether */\n      lt\n      iszero\n        /* \"Lottery.sol\":1595:1670  require(msg.value >= 1 ether, \"Your contribution must be 1 or more ethers\") */\n      tag_71\n      jumpi\n      mload(0x40)\n      0x08c379a000000000000000000000000000000000000000000000000000000000\n      dup2\n      mstore\n      0x04\n      add\n      tag_72\n      swap1\n      tag_73\n      jump\t// in\n    tag_72:\n      mload(0x40)\n      dup1\n      swap2\n      sub\n      swap1\n      revert\n    tag_71:\n        /* \"Lottery.sol\":1114:1120  uint i */\n      0x00\n        /* \"Lottery.sol\":1110:1528  for(uint i = 0; i < listOfProject.length; i++){\r... */\n    tag_75:\n        /* \"Lottery.sol\":1130:1143  listOfProject */\n      0x02\n        /* \"Lottery.sol\":1130:1150  listOfProject.length */\n      dup1\n      sload\n      swap1\n      pop\n        /* \"Lottery.sol\":1126:1127  i */\n      dup2\n        /* \"Lottery.sol\":1126:1150  i < listOfProject.length */\n      lt\n        /* \"Lottery.sol\":1110:1528  for(uint i = 0; i < listOfProject.length; i++){\r... */\n      iszero\n      tag_76\n      jumpi\n        /* \"Lottery.sol\":1202:1216  campainAddress */\n      dup2\n        /* \"Lottery.sol\":1174:1216  listOfProject[i].Creator == campainAddress */\n      0xffffffffffffffffffffffffffffffffffffffff\n      and\n        /* \"Lottery.sol\":1174:1187  listOfProject */\n      0x02\n        /* \"Lottery.sol\":1188:1189  i */\n      dup3\n        /* \"Lottery.sol\":1174:1190  listOfProject[i] */\n      dup2\n      sload\n      dup2\n      lt\n      tag_78\n      jumpi\n      mstore(0x00, 0x4e487b7100000000000000000000000000000000000000000000000000000000)\n      mstore(0x04, 0x32)\n      revert(0x00, 0x24)\n    tag_78:\n      swap1\n      0x00\n      mstore\n      keccak256(0x00, 0x20)\n      swap1\n      0x05\n      mul\n      add\n        /* \"Lottery.sol\":1174:1198  listOfProject[i].Creator */\n      0x00\n      add\n      0x00\n      swap1\n      sload\n      swap1\n      0x0100\n      exp\n      swap1\n      div\n      0xffffffffffffffffffffffffffffffffffffffff\n      and\n        /* \"Lottery.sol\":1174:1216  listOfProject[i].Creator == campainAddress */\n      0xffffffffffffffffffffffffffffffffffffffff\n      and\n      eq\n        /* \"Lottery.sol\":1171:1517  if(listOfProject[i].Creator == campainAddress){\r... */\n      iszero\n      tag_80\n      jumpi\n        /* \"Lottery.sol\":1302:1315  listOfProject */\n      0x02\n        /* \"Lottery.sol\":1316:1317  i */\n      dup2\n        /* \"Lottery.sol\":1302:1318  listOfProject[i] */\n      dup2\n      sload\n      dup2\n      lt\n      tag_81\n      jumpi\n      mstore(0x00, 0x4e487b7100000000000000000000000000000000000000000000000000000000)\n      mstore(0x04, 0x32)\n      revert(0x00, 0x24)\n    tag_81:\n      swap1\n      0x00\n      mstore\n      keccak256(0x00, 0x20)\n      swap1\n      0x05\n      mul\n      add\n        /* \"Lottery.sol\":1302:1333  listOfProject[i].RequiredAmount */\n      0x03\n      add\n      sload\n        /* \"Lottery.sol\":1291:1298  1 ether */\n      0x0de0b6b3a7640000\n        /* \"Lottery.sol\":1278:1287  msg.value */\n      callvalue\n        /* \"Lottery.sol\":1245:1258  listOfProject */\n      0x02\n        /* \"Lottery.sol\":1259:1260  i */\n      dup5\n        /* \"Lottery.sol\":1245:1261  listOfProject[i] */\n      dup2\n      sload\n      dup2\n      lt\n      tag_83\n      jumpi\n      mstore(0x00, 0x4e487b7100000000000000000000000000000000000000000000000000000000)\n      mstore(0x04, 0x32)\n      revert(0x00, 0x24)\n    tag_83:\n      swap1\n      0x00\n      mstore\n      keccak256(0x00, 0x20)\n      swap1\n      0x05\n      mul\n      add\n        /* \"Lottery.sol\":1245:1275  listOfProject[i].ReceiveAmount */\n      0x04\n      add\n      sload\n        /* \"Lottery.sol\":1245:1287  listOfProject[i].ReceiveAmount + msg.value */\n      tag_85\n      swap2\n      swap1\n      tag_86\n      jump\t// in\n    tag_85:\n        /* \"Lottery.sol\":1244:1298  (listOfProject[i].ReceiveAmount + msg.value) * 1 ether */\n      tag_87\n      swap2\n      swap1\n      tag_44\n      jump\t// in\n    tag_87:\n        /* \"Lottery.sol\":1244:1333  (listOfProject[i].ReceiveAmount + msg.value) * 1 ether <= listOfProject[i].RequiredAmount */\n      gt\n      iszero\n        /* \"Lottery.sol\":1236:1367  require((listOfProject[i].ReceiveAmount + msg.value) * 1 ether <= listOfProject[i].RequiredAmount, \"Required amount limit exceeds\") */\n      tag_88\n      jumpi\n      mload(0x40)\n      0x08c379a000000000000000000000000000000000000000000000000000000000\n      dup2\n      mstore\n      0x04\n      add\n      tag_89\n      swap1\n      tag_90\n      jump\t// in\n    tag_89:\n      mload(0x40)\n      dup1\n      swap2\n      sub\n      swap1\n      revert\n    tag_88:\n        /* \"Lottery.sol\":1394:1407  listOfProject */\n      0x02\n        /* \"Lottery.sol\":1408:1409  i */\n      dup2\n        /* \"Lottery.sol\":1394:1410  listOfProject[i] */\n      dup2\n      sload\n      dup2\n      lt\n      tag_91\n      jumpi\n      mstore(0x00, 0x4e487b7100000000000000000000000000000000000000000000000000000000)\n      mstore(0x04, 0x32)\n      revert(0x00, 0x24)\n    tag_91:\n      swap1\n      0x00\n      mstore\n      keccak256(0x00, 0x20)\n      swap1\n      0x05\n      mul\n      add\n        /* \"Lottery.sol\":1394:1418  listOfProject[i].Creator */\n      0x00\n      add\n      0x00\n      swap1\n      sload\n      swap1\n      0x0100\n      exp\n      swap1\n      div\n      0xffffffffffffffffffffffffffffffffffffffff\n      and\n        /* \"Lottery.sol\":1386:1428  payable(listOfProject[i].Creator).transfer */\n      0xffffffffffffffffffffffffffffffffffffffff\n      and\n        /* \"Lottery.sol\":1386:1439  payable(listOfProject[i].Creator).transfer(msg.value) */\n      0x08fc\n        /* \"Lottery.sol\":1429:1438  msg.value */\n      callvalue\n        /* \"Lottery.sol\":1386:1439  payable(listOfProject[i].Creator).transfer(msg.value) */\n      swap1\n      dup2\n      iszero\n      mul\n      swap1\n      mload(0x40)\n      0x00\n      mload(0x40)\n      dup1\n      dup4\n      sub\n      dup2\n      dup6\n      dup9\n      dup9\n      call\n      swap4\n      pop\n      pop\n      pop\n      pop\n      iszero\n      dup1\n      iszero\n      tag_94\n      jumpi\n      returndatasize\n      0x00\n      dup1\n      returndatacopy\n      revert(0x00, returndatasize)\n    tag_94:\n      pop\n        /* \"Lottery.sol\":1492:1501  msg.value */\n      callvalue\n        /* \"Lottery.sol\":1458:1471  listOfProject */\n      0x02\n        /* \"Lottery.sol\":1472:1473  i */\n      dup3\n        /* \"Lottery.sol\":1458:1474  listOfProject[i] */\n      dup2\n      sload\n      dup2\n      lt\n      tag_95\n      jumpi\n      mstore(0x00, 0x4e487b7100000000000000000000000000000000000000000000000000000000)\n      mstore(0x04, 0x32)\n      revert(0x00, 0x24)\n    tag_95:\n      swap1\n      0x00\n      mstore\n      keccak256(0x00, 0x20)\n      swap1\n      0x05\n      mul\n      add\n        /* \"Lottery.sol\":1458:1488  listOfProject[i].ReceiveAmount */\n      0x04\n      add\n      0x00\n        /* \"Lottery.sol\":1458:1501  listOfProject[i].ReceiveAmount += msg.value */\n      dup3\n      dup3\n      sload\n      tag_97\n      swap2\n      swap1\n      tag_86\n      jump\t// in\n    tag_97:\n      swap3\n      pop\n      pop\n      dup2\n      swap1\n      sstore\n      pop\n        /* \"Lottery.sol\":1171:1517  if(listOfProject[i].Creator == campainAddress){\r... */\n    tag_80:\n        /* \"Lottery.sol\":1152:1155  i++ */\n      dup1\n      dup1\n      tag_98\n      swap1\n      tag_99\n      jump\t// in\n    tag_98:\n      swap2\n      pop\n      pop\n        /* \"Lottery.sol\":1110:1528  for(uint i = 0; i < listOfProject.length; i++){\r... */\n      jump(tag_75)\n    tag_76:\n      pop\n        /* \"Lottery.sol\":1020:1535  function contributeCampain(address campainAddress) payable public contribution {\r... */\n      pop\n      jump\t// out\n    tag_47:\n      dup3\n      dup1\n      sload\n      tag_100\n      swap1\n      tag_55\n      jump\t// in\n    tag_100:\n      swap1\n      0x00\n      mstore\n      keccak256(0x00, 0x20)\n      swap1\n      0x1f\n      add\n      0x20\n      swap1\n      div\n      dup2\n      add\n      swap3\n      dup3\n      tag_102\n      jumpi\n      0x00\n      dup6\n      sstore\n      jump(tag_101)\n    tag_102:\n      dup3\n      0x1f\n      lt\n      tag_103\n      jumpi\n      dup1\n      mload\n      not(0xff)\n      and\n      dup4\n      dup1\n      add\n      or\n      dup6\n      sstore\n      jump(tag_101)\n    tag_103:\n      dup3\n      dup1\n      add\n      0x01\n      add\n      dup6\n      sstore\n      dup3\n      iszero\n      tag_101\n      jumpi\n      swap2\n      dup3\n      add\n    tag_104:\n      dup3\n      dup2\n      gt\n      iszero\n      tag_105\n      jumpi\n      dup3\n      mload\n      dup3\n      sstore\n      swap2\n      0x20\n      add\n      swap2\n      swap1\n      0x01\n      add\n      swap1\n      jump(tag_104)\n    tag_105:\n    tag_101:\n      pop\n      swap1\n      pop\n      tag_106\n      swap2\n      swap1\n      tag_107\n      jump\t// in\n    tag_106:\n      pop\n      swap1\n      jump\t// out\n    tag_107:\n    tag_108:\n      dup1\n      dup3\n      gt\n      iszero\n      tag_109\n      jumpi\n      0x00\n      dup2\n      0x00\n      swap1\n      sstore\n      pop\n      0x01\n      add\n      jump(tag_108)\n    tag_109:\n      pop\n      swap1\n      jump\t// out\n        /* \"#utility.yul\":7:352   */\n    tag_111:\n      0x00\n        /* \"#utility.yul\":110:176   */\n      tag_113\n        /* \"#utility.yul\":126:175   */\n      tag_114\n        /* \"#utility.yul\":168:174   */\n      dup5\n        /* \"#utility.yul\":126:175   */\n      tag_115\n      jump\t// in\n    tag_114:\n        /* \"#utility.yul\":110:176   */\n      tag_116\n      jump\t// in\n    tag_113:\n        /* \"#utility.yul\":101:176   */\n      swap1\n      pop\n        /* \"#utility.yul\":199:205   */\n      dup3\n        /* \"#utility.yul\":192:197   */\n      dup2\n        /* \"#utility.yul\":185:206   */\n      mstore\n        /* \"#utility.yul\":237:241   */\n      0x20\n        /* \"#utility.yul\":230:235   */\n      dup2\n        /* \"#utility.yul\":226:242   */\n      add\n        /* \"#utility.yul\":275:278   */\n      dup5\n        /* \"#utility.yul\":266:272   */\n      dup5\n        /* \"#utility.yul\":261:264   */\n      dup5\n        /* \"#utility.yul\":257:273   */\n      add\n        /* \"#utility.yul\":254:279   */\n      gt\n        /* \"#utility.yul\":251:253   */\n      iszero\n      tag_117\n      jumpi\n        /* \"#utility.yul\":292:293   */\n      0x00\n        /* \"#utility.yul\":289:290   */\n      dup1\n        /* \"#utility.yul\":282:294   */\n      revert\n        /* \"#utility.yul\":251:253   */\n    tag_117:\n        /* \"#utility.yul\":305:346   */\n      tag_118\n        /* \"#utility.yul\":339:345   */\n      dup5\n        /* \"#utility.yul\":334:337   */\n      dup3\n        /* \"#utility.yul\":329:332   */\n      dup6\n        /* \"#utility.yul\":305:346   */\n      tag_119\n      jump\t// in\n    tag_118:\n        /* \"#utility.yul\":91:352   */\n      pop\n      swap4\n      swap3\n      pop\n      pop\n      pop\n      jump\t// out\n        /* \"#utility.yul\":358:497   */\n    tag_120:\n      0x00\n        /* \"#utility.yul\":442:448   */\n      dup2\n        /* \"#utility.yul\":429:449   */\n      calldataload\n        /* \"#utility.yul\":420:449   */\n      swap1\n      pop\n        /* \"#utility.yul\":458:491   */\n      tag_122\n        /* \"#utility.yul\":485:490   */\n      dup2\n        /* \"#utility.yul\":458:491   */\n      tag_123\n      jump\t// in\n    tag_122:\n        /* \"#utility.yul\":410:497   */\n      swap3\n      swap2\n      pop\n      pop\n      jump\t// out\n        /* \"#utility.yul\":517:790   */\n    tag_124:\n      0x00\n        /* \"#utility.yul\":622:625   */\n      dup3\n        /* \"#utility.yul\":615:619   */\n      0x1f\n        /* \"#utility.yul\":607:613   */\n      dup4\n        /* \"#utility.yul\":603:620   */\n      add\n        /* \"#utility.yul\":599:626   */\n      slt\n        /* \"#utility.yul\":589:591   */\n      tag_126\n      jumpi\n        /* \"#utility.yul\":640:641   */\n      0x00\n        /* \"#utility.yul\":637:638   */\n      dup1\n        /* \"#utility.yul\":630:642   */\n      revert\n        /* \"#utility.yul\":589:591   */\n    tag_126:\n        /* \"#utility.yul\":680:686   */\n      dup2\n        /* \"#utility.yul\":667:687   */\n      calldataload\n        /* \"#utility.yul\":705:784   */\n      tag_127\n        /* \"#utility.yul\":780:783   */\n      dup5\n        /* \"#utility.yul\":772:778   */\n      dup3\n        /* \"#utility.yul\":765:769   */\n      0x20\n        /* \"#utility.yul\":757:763   */\n      dup7\n        /* \"#utility.yul\":753:770   */\n      add\n        /* \"#utility.yul\":705:784   */\n      tag_111\n      jump\t// in\n    tag_127:\n        /* \"#utility.yul\":696:784   */\n      swap2\n      pop\n        /* \"#utility.yul\":579:790   */\n      pop\n      swap3\n      swap2\n      pop\n      pop\n      jump\t// out\n        /* \"#utility.yul\":796:935   */\n    tag_128:\n      0x00\n        /* \"#utility.yul\":880:886   */\n      dup2\n        /* \"#utility.yul\":867:887   */\n      calldataload\n        /* \"#utility.yul\":858:887   */\n      swap1\n      pop\n        /* \"#utility.yul\":896:929   */\n      tag_130\n        /* \"#utility.yul\":923:928   */\n      dup2\n        /* \"#utility.yul\":896:929   */\n      tag_131\n      jump\t// in\n    tag_130:\n        /* \"#utility.yul\":848:935   */\n      swap3\n      swap2\n      pop\n      pop\n      jump\t// out\n        /* \"#utility.yul\":941:1203   */\n    tag_36:\n      0x00\n        /* \"#utility.yul\":1049:1051   */\n      0x20\n        /* \"#utility.yul\":1037:1046   */\n      dup3\n        /* \"#utility.yul\":1028:1035   */\n      dup5\n        /* \"#utility.yul\":1024:1047   */\n      sub\n        /* \"#utility.yul\":1020:1052   */\n      slt\n        /* \"#utility.yul\":1017:1019   */\n      iszero\n      tag_133\n      jumpi\n        /* \"#utility.yul\":1065:1066   */\n      0x00\n        /* \"#utility.yul\":1062:1063   */\n      dup1\n        /* \"#utility.yul\":1055:1067   */\n      revert\n        /* \"#utility.yul\":1017:1019   */\n    tag_133:\n        /* \"#utility.yul\":1108:1109   */\n      0x00\n        /* \"#utility.yul\":1133:1186   */\n      tag_134\n        /* \"#utility.yul\":1178:1185   */\n      dup5\n        /* \"#utility.yul\":1169:1175   */\n      dup3\n        /* \"#utility.yul\":1158:1167   */\n      dup6\n        /* \"#utility.yul\":1154:1176   */\n      add\n        /* \"#utility.yul\":1133:1186   */\n      tag_120\n      jump\t// in\n    tag_134:\n        /* \"#utility.yul\":1123:1186   */\n      swap2\n      pop\n        /* \"#utility.yul\":1079:1196   */\n      pop\n        /* \"#utility.yul\":1007:1203   */\n      swap3\n      swap2\n      pop\n      pop\n      jump\t// out\n        /* \"#utility.yul\":1209:1987   */\n    tag_11:\n      0x00\n      dup1\n      0x00\n        /* \"#utility.yul\":1371:1373   */\n      0x60\n        /* \"#utility.yul\":1359:1368   */\n      dup5\n        /* \"#utility.yul\":1350:1357   */\n      dup7\n        /* \"#utility.yul\":1346:1369   */\n      sub\n        /* \"#utility.yul\":1342:1374   */\n      slt\n        /* \"#utility.yul\":1339:1341   */\n      iszero\n      tag_136\n      jumpi\n        /* \"#utility.yul\":1387:1388   */\n      0x00\n        /* \"#utility.yul\":1384:1385   */\n      dup1\n        /* \"#utility.yul\":1377:1389   */\n      revert\n        /* \"#utility.yul\":1339:1341   */\n    tag_136:\n        /* \"#utility.yul\":1458:1459   */\n      0x00\n        /* \"#utility.yul\":1447:1456   */\n      dup5\n        /* \"#utility.yul\":1443:1460   */\n      add\n        /* \"#utility.yul\":1430:1461   */\n      calldataload\n        /* \"#utility.yul\":1488:1506   */\n      0xffffffffffffffff\n        /* \"#utility.yul\":1480:1486   */\n      dup2\n        /* \"#utility.yul\":1477:1507   */\n      gt\n        /* \"#utility.yul\":1474:1476   */\n      iszero\n      tag_137\n      jumpi\n        /* \"#utility.yul\":1520:1521   */\n      0x00\n        /* \"#utility.yul\":1517:1518   */\n      dup1\n        /* \"#utility.yul\":1510:1522   */\n      revert\n        /* \"#utility.yul\":1474:1476   */\n    tag_137:\n        /* \"#utility.yul\":1548:1611   */\n      tag_138\n        /* \"#utility.yul\":1603:1610   */\n      dup7\n        /* \"#utility.yul\":1594:1600   */\n      dup3\n        /* \"#utility.yul\":1583:1592   */\n      dup8\n        /* \"#utility.yul\":1579:1601   */\n      add\n        /* \"#utility.yul\":1548:1611   */\n      tag_124\n      jump\t// in\n    tag_138:\n        /* \"#utility.yul\":1538:1611   */\n      swap4\n      pop\n        /* \"#utility.yul\":1401:1621   */\n      pop\n        /* \"#utility.yul\":1688:1690   */\n      0x20\n        /* \"#utility.yul\":1677:1686   */\n      dup5\n        /* \"#utility.yul\":1673:1691   */\n      add\n        /* \"#utility.yul\":1660:1692   */\n      calldataload\n        /* \"#utility.yul\":1719:1737   */\n      0xffffffffffffffff\n        /* \"#utility.yul\":1711:1717   */\n      dup2\n        /* \"#utility.yul\":1708:1738   */\n      gt\n        /* \"#utility.yul\":1705:1707   */\n      iszero\n      tag_139\n      jumpi\n        /* \"#utility.yul\":1751:1752   */\n      0x00\n        /* \"#utility.yul\":1748:1749   */\n      dup1\n        /* \"#utility.yul\":1741:1753   */\n      revert\n        /* \"#utility.yul\":1705:1707   */\n    tag_139:\n        /* \"#utility.yul\":1779:1842   */\n      tag_140\n        /* \"#utility.yul\":1834:1841   */\n      dup7\n        /* \"#utility.yul\":1825:1831   */\n      dup3\n        /* \"#utility.yul\":1814:1823   */\n      dup8\n        /* \"#utility.yul\":1810:1832   */\n      add\n        /* \"#utility.yul\":1779:1842   */\n      tag_124\n      jump\t// in\n    tag_140:\n        /* \"#utility.yul\":1769:1842   */\n      swap3\n      pop\n        /* \"#utility.yul\":1631:1852   */\n      pop\n        /* \"#utility.yul\":1891:1893   */\n      0x40\n        /* \"#utility.yul\":1917:1970   */\n      tag_141\n        /* \"#utility.yul\":1962:1969   */\n      dup7\n        /* \"#utility.yul\":1953:1959   */\n      dup3\n        /* \"#utility.yul\":1942:1951   */\n      dup8\n        /* \"#utility.yul\":1938:1960   */\n      add\n        /* \"#utility.yul\":1917:1970   */\n      tag_128\n      jump\t// in\n    tag_141:\n        /* \"#utility.yul\":1907:1970   */\n      swap2\n      pop\n        /* \"#utility.yul\":1862:1980   */\n      pop\n        /* \"#utility.yul\":1329:1987   */\n      swap3\n      pop\n      swap3\n      pop\n      swap3\n      jump\t// out\n        /* \"#utility.yul\":1993:2255   */\n    tag_26:\n      0x00\n        /* \"#utility.yul\":2101:2103   */\n      0x20\n        /* \"#utility.yul\":2089:2098   */\n      dup3\n        /* \"#utility.yul\":2080:2087   */\n      dup5\n        /* \"#utility.yul\":2076:2099   */\n      sub\n        /* \"#utility.yul\":2072:2104   */\n      slt\n        /* \"#utility.yul\":2069:2071   */\n      iszero\n      tag_143\n      jumpi\n        /* \"#utility.yul\":2117:2118   */\n      0x00\n        /* \"#utility.yul\":2114:2115   */\n      dup1\n        /* \"#utility.yul\":2107:2119   */\n      revert\n        /* \"#utility.yul\":2069:2071   */\n    tag_143:\n        /* \"#utility.yul\":2160:2161   */\n      0x00\n        /* \"#utility.yul\":2185:2238   */\n      tag_144\n        /* \"#utility.yul\":2230:2237   */\n      dup5\n        /* \"#utility.yul\":2221:2227   */\n      dup3\n        /* \"#utility.yul\":2210:2219   */\n      dup6\n        /* \"#utility.yul\":2206:2228   */\n      add\n        /* \"#utility.yul\":2185:2238   */\n      tag_128\n      jump\t// in\n    tag_144:\n        /* \"#utility.yul\":2175:2238   */\n      swap2\n      pop\n        /* \"#utility.yul\":2131:2248   */\n      pop\n        /* \"#utility.yul\":2059:2255   */\n      swap3\n      swap2\n      pop\n      pop\n      jump\t// out\n        /* \"#utility.yul\":2261:2440   */\n    tag_145:\n      0x00\n        /* \"#utility.yul\":2351:2397   */\n      tag_147\n        /* \"#utility.yul\":2393:2396   */\n      dup4\n        /* \"#utility.yul\":2385:2391   */\n      dup4\n        /* \"#utility.yul\":2351:2397   */\n      tag_148\n      jump\t// in\n    tag_147:\n        /* \"#utility.yul\":2429:2433   */\n      0x20\n        /* \"#utility.yul\":2424:2427   */\n      dup4\n        /* \"#utility.yul\":2420:2434   */\n      add\n        /* \"#utility.yul\":2406:2434   */\n      swap1\n      pop\n        /* \"#utility.yul\":2341:2440   */\n      swap3\n      swap2\n      pop\n      pop\n      jump\t// out\n        /* \"#utility.yul\":2446:2694   */\n    tag_149:\n      0x00\n        /* \"#utility.yul\":2596:2688   */\n      tag_151\n        /* \"#utility.yul\":2684:2687   */\n      dup4\n        /* \"#utility.yul\":2676:2682   */\n      dup4\n        /* \"#utility.yul\":2596:2688   */\n      tag_152\n      jump\t// in\n    tag_151:\n        /* \"#utility.yul\":2582:2688   */\n      swap1\n      pop\n        /* \"#utility.yul\":2572:2694   */\n      swap3\n      swap2\n      pop\n      pop\n      jump\t// out\n        /* \"#utility.yul\":2700:2808   */\n    tag_148:\n        /* \"#utility.yul\":2777:2801   */\n      tag_154\n        /* \"#utility.yul\":2795:2800   */\n      dup2\n        /* \"#utility.yul\":2777:2801   */\n      tag_155\n      jump\t// in\n    tag_154:\n        /* \"#utility.yul\":2772:2775   */\n      dup3\n        /* \"#utility.yul\":2765:2802   */\n      mstore\n        /* \"#utility.yul\":2755:2808   */\n      pop\n      pop\n      jump\t// out\n        /* \"#utility.yul\":2814:2932   */\n    tag_156:\n        /* \"#utility.yul\":2901:2925   */\n      tag_158\n        /* \"#utility.yul\":2919:2924   */\n      dup2\n        /* \"#utility.yul\":2901:2925   */\n      tag_155\n      jump\t// in\n    tag_158:\n        /* \"#utility.yul\":2896:2899   */\n      dup3\n        /* \"#utility.yul\":2889:2926   */\n      mstore\n        /* \"#utility.yul\":2879:2932   */\n      pop\n      pop\n      jump\t// out\n        /* \"#utility.yul\":2968:3700   */\n    tag_159:\n      0x00\n        /* \"#utility.yul\":3116:3170   */\n      tag_161\n        /* \"#utility.yul\":3164:3169   */\n      dup3\n        /* \"#utility.yul\":3116:3170   */\n      tag_162\n      jump\t// in\n    tag_161:\n        /* \"#utility.yul\":3186:3272   */\n      tag_163\n        /* \"#utility.yul\":3265:3271   */\n      dup2\n        /* \"#utility.yul\":3260:3263   */\n      dup6\n        /* \"#utility.yul\":3186:3272   */\n      tag_164\n      jump\t// in\n    tag_163:\n        /* \"#utility.yul\":3179:3272   */\n      swap4\n      pop\n        /* \"#utility.yul\":3296:3352   */\n      tag_165\n        /* \"#utility.yul\":3346:3351   */\n      dup4\n        /* \"#utility.yul\":3296:3352   */\n      tag_166\n      jump\t// in\n    tag_165:\n        /* \"#utility.yul\":3375:3382   */\n      dup1\n        /* \"#utility.yul\":3406:3407   */\n      0x00\n        /* \"#utility.yul\":3391:3675   */\n    tag_167:\n        /* \"#utility.yul\":3416:3422   */\n      dup4\n        /* \"#utility.yul\":3413:3414   */\n      dup2\n        /* \"#utility.yul\":3410:3423   */\n      lt\n        /* \"#utility.yul\":3391:3675   */\n      iszero\n      tag_169\n      jumpi\n        /* \"#utility.yul\":3492:3498   */\n      dup2\n        /* \"#utility.yul\":3486:3499   */\n      mload\n        /* \"#utility.yul\":3519:3582   */\n      tag_170\n        /* \"#utility.yul\":3578:3581   */\n      dup9\n        /* \"#utility.yul\":3563:3576   */\n      dup3\n        /* \"#utility.yul\":3519:3582   */\n      tag_145\n      jump\t// in\n    tag_170:\n        /* \"#utility.yul\":3512:3582   */\n      swap8\n      pop\n        /* \"#utility.yul\":3605:3665   */\n      tag_171\n        /* \"#utility.yul\":3658:3664   */\n      dup4\n        /* \"#utility.yul\":3605:3665   */\n      tag_172\n      jump\t// in\n    tag_171:\n        /* \"#utility.yul\":3595:3665   */\n      swap3\n      pop\n        /* \"#utility.yul\":3451:3675   */\n      pop\n        /* \"#utility.yul\":3438:3439   */\n      0x01\n        /* \"#utility.yul\":3435:3436   */\n      dup2\n        /* \"#utility.yul\":3431:3440   */\n      add\n        /* \"#utility.yul\":3426:3440   */\n      swap1\n      pop\n        /* \"#utility.yul\":3391:3675   */\n      jump(tag_167)\n    tag_169:\n        /* \"#utility.yul\":3395:3409   */\n      pop\n        /* \"#utility.yul\":3691:3694   */\n      dup6\n        /* \"#utility.yul\":3684:3694   */\n      swap4\n      pop\n        /* \"#utility.yul\":3092:3700   */\n      pop\n      pop\n      pop\n      swap3\n      swap2\n      pop\n      pop\n      jump\t// out\n        /* \"#utility.yul\":3778:4873   */\n    tag_173:\n      0x00\n        /* \"#utility.yul\":3972:4049   */\n      tag_175\n        /* \"#utility.yul\":4043:4048   */\n      dup3\n        /* \"#utility.yul\":3972:4049   */\n      tag_176\n      jump\t// in\n    tag_175:\n        /* \"#utility.yul\":4065:4174   */\n      tag_177\n        /* \"#utility.yul\":4167:4173   */\n      dup2\n        /* \"#utility.yul\":4162:4165   */\n      dup6\n        /* \"#utility.yul\":4065:4174   */\n      tag_178\n      jump\t// in\n    tag_177:\n        /* \"#utility.yul\":4058:4174   */\n      swap4\n      pop\n        /* \"#utility.yul\":4200:4203   */\n      dup4\n        /* \"#utility.yul\":4245:4249   */\n      0x20\n        /* \"#utility.yul\":4237:4243   */\n      dup3\n        /* \"#utility.yul\":4233:4250   */\n      mul\n        /* \"#utility.yul\":4228:4231   */\n      dup6\n        /* \"#utility.yul\":4224:4251   */\n      add\n        /* \"#utility.yul\":4275:4354   */\n      tag_179\n        /* \"#utility.yul\":4348:4353   */\n      dup6\n        /* \"#utility.yul\":4275:4354   */\n      tag_180\n      jump\t// in\n    tag_179:\n        /* \"#utility.yul\":4377:4384   */\n      dup1\n        /* \"#utility.yul\":4408:4409   */\n      0x00\n        /* \"#utility.yul\":4393:4828   */\n    tag_181:\n        /* \"#utility.yul\":4418:4424   */\n      dup6\n        /* \"#utility.yul\":4415:4416   */\n      dup2\n        /* \"#utility.yul\":4412:4425   */\n      lt\n        /* \"#utility.yul\":4393:4828   */\n      iszero\n      tag_183\n      jumpi\n        /* \"#utility.yul\":4489:4498   */\n      dup5\n        /* \"#utility.yul\":4483:4487   */\n      dup5\n        /* \"#utility.yul\":4479:4499   */\n      sub\n        /* \"#utility.yul\":4474:4477   */\n      dup10\n        /* \"#utility.yul\":4467:4500   */\n      mstore\n        /* \"#utility.yul\":4540:4546   */\n      dup2\n        /* \"#utility.yul\":4534:4547   */\n      mload\n        /* \"#utility.yul\":4568:4678   */\n      tag_184\n        /* \"#utility.yul\":4673:4677   */\n      dup6\n        /* \"#utility.yul\":4658:4671   */\n      dup3\n        /* \"#utility.yul\":4568:4678   */\n      tag_149\n      jump\t// in\n    tag_184:\n        /* \"#utility.yul\":4560:4678   */\n      swap5\n      pop\n        /* \"#utility.yul\":4701:4784   */\n      tag_185\n        /* \"#utility.yul\":4777:4783   */\n      dup4\n        /* \"#utility.yul\":4701:4784   */\n      tag_186\n      jump\t// in\n    tag_185:\n        /* \"#utility.yul\":4691:4784   */\n      swap3\n      pop\n        /* \"#utility.yul\":4813:4817   */\n      0x20\n        /* \"#utility.yul\":4808:4811   */\n      dup11\n        /* \"#utility.yul\":4804:4818   */\n      add\n        /* \"#utility.yul\":4797:4818   */\n      swap10\n      pop\n        /* \"#utility.yul\":4453:4828   */\n      pop\n        /* \"#utility.yul\":4440:4441   */\n      0x01\n        /* \"#utility.yul\":4437:4438   */\n      dup2\n        /* \"#utility.yul\":4433:4442   */\n      add\n        /* \"#utility.yul\":4428:4442   */\n      swap1\n      pop\n        /* \"#utility.yul\":4393:4828   */\n      jump(tag_181)\n    tag_183:\n        /* \"#utility.yul\":4397:4411   */\n      pop\n        /* \"#utility.yul\":4844:4848   */\n      dup3\n        /* \"#utility.yul\":4837:4848   */\n      swap8\n      pop\n        /* \"#utility.yul\":4864:4867   */\n      dup8\n        /* \"#utility.yul\":4857:4867   */\n      swap6\n      pop\n        /* \"#utility.yul\":3948:4873   */\n      pop\n      pop\n      pop\n      pop\n      pop\n      swap3\n      swap2\n      pop\n      pop\n      jump\t// out\n        /* \"#utility.yul\":4879:5223   */\n    tag_187:\n      0x00\n        /* \"#utility.yul\":4985:5024   */\n      tag_189\n        /* \"#utility.yul\":5018:5023   */\n      dup3\n        /* \"#utility.yul\":4985:5024   */\n      tag_190\n      jump\t// in\n    tag_189:\n        /* \"#utility.yul\":5040:5101   */\n      tag_191\n        /* \"#utility.yul\":5094:5100   */\n      dup2\n        /* \"#utility.yul\":5089:5092   */\n      dup6\n        /* \"#utility.yul\":5040:5101   */\n      tag_192\n      jump\t// in\n    tag_191:\n        /* \"#utility.yul\":5033:5101   */\n      swap4\n      pop\n        /* \"#utility.yul\":5110:5162   */\n      tag_193\n        /* \"#utility.yul\":5155:5161   */\n      dup2\n        /* \"#utility.yul\":5150:5153   */\n      dup6\n        /* \"#utility.yul\":5143:5147   */\n      0x20\n        /* \"#utility.yul\":5136:5141   */\n      dup7\n        /* \"#utility.yul\":5132:5148   */\n      add\n        /* \"#utility.yul\":5110:5162   */\n      tag_194\n      jump\t// in\n    tag_193:\n        /* \"#utility.yul\":5187:5216   */\n      tag_195\n        /* \"#utility.yul\":5209:5215   */\n      dup2\n        /* \"#utility.yul\":5187:5216   */\n      tag_196\n      jump\t// in\n    tag_195:\n        /* \"#utility.yul\":5182:5185   */\n      dup5\n        /* \"#utility.yul\":5178:5217   */\n      add\n        /* \"#utility.yul\":5171:5217   */\n      swap2\n      pop\n        /* \"#utility.yul\":4961:5223   */\n      pop\n      swap3\n      swap2\n      pop\n      pop\n      jump\t// out\n        /* \"#utility.yul\":5229:5595   */\n    tag_197:\n      0x00\n        /* \"#utility.yul\":5392:5459   */\n      tag_199\n        /* \"#utility.yul\":5456:5458   */\n      0x1e\n        /* \"#utility.yul\":5451:5454   */\n      dup4\n        /* \"#utility.yul\":5392:5459   */\n      tag_200\n      jump\t// in\n    tag_199:\n        /* \"#utility.yul\":5385:5459   */\n      swap2\n      pop\n        /* \"#utility.yul\":5468:5561   */\n      tag_201\n        /* \"#utility.yul\":5557:5560   */\n      dup3\n        /* \"#utility.yul\":5468:5561   */\n      tag_202\n      jump\t// in\n    tag_201:\n        /* \"#utility.yul\":5586:5588   */\n      0x20\n        /* \"#utility.yul\":5581:5584   */\n      dup3\n        /* \"#utility.yul\":5577:5589   */\n      add\n        /* \"#utility.yul\":5570:5589   */\n      swap1\n      pop\n        /* \"#utility.yul\":5375:5595   */\n      swap2\n      swap1\n      pop\n      jump\t// out\n        /* \"#utility.yul\":5601:5967   */\n    tag_203:\n      0x00\n        /* \"#utility.yul\":5764:5831   */\n      tag_205\n        /* \"#utility.yul\":5828:5830   */\n      0x1d\n        /* \"#utility.yul\":5823:5826   */\n      dup4\n        /* \"#utility.yul\":5764:5831   */\n      tag_200\n      jump\t// in\n    tag_205:\n        /* \"#utility.yul\":5757:5831   */\n      swap2\n      pop\n        /* \"#utility.yul\":5840:5933   */\n      tag_206\n        /* \"#utility.yul\":5929:5932   */\n      dup3\n        /* \"#utility.yul\":5840:5933   */\n      tag_207\n      jump\t// in\n    tag_206:\n        /* \"#utility.yul\":5958:5960   */\n      0x20\n        /* \"#utility.yul\":5953:5956   */\n      dup3\n        /* \"#utility.yul\":5949:5961   */\n      add\n        /* \"#utility.yul\":5942:5961   */\n      swap1\n      pop\n        /* \"#utility.yul\":5747:5967   */\n      swap2\n      swap1\n      pop\n      jump\t// out\n        /* \"#utility.yul\":5973:6339   */\n    tag_208:\n      0x00\n        /* \"#utility.yul\":6136:6203   */\n      tag_210\n        /* \"#utility.yul\":6200:6202   */\n      0x2a\n        /* \"#utility.yul\":6195:6198   */\n      dup4\n        /* \"#utility.yul\":6136:6203   */\n      tag_200\n      jump\t// in\n    tag_210:\n        /* \"#utility.yul\":6129:6203   */\n      swap2\n      pop\n        /* \"#utility.yul\":6212:6305   */\n      tag_211\n        /* \"#utility.yul\":6301:6304   */\n      dup3\n        /* \"#utility.yul\":6212:6305   */\n      tag_212\n      jump\t// in\n    tag_211:\n        /* \"#utility.yul\":6330:6332   */\n      0x40\n        /* \"#utility.yul\":6325:6328   */\n      dup3\n        /* \"#utility.yul\":6321:6333   */\n      add\n        /* \"#utility.yul\":6314:6333   */\n      swap1\n      pop\n        /* \"#utility.yul\":6119:6339   */\n      swap2\n      swap1\n      pop\n      jump\t// out\n        /* \"#utility.yul\":6413:7627   */\n    tag_152:\n      0x00\n        /* \"#utility.yul\":6554:6558   */\n      0xa0\n        /* \"#utility.yul\":6549:6552   */\n      dup4\n        /* \"#utility.yul\":6545:6559   */\n      add\n        /* \"#utility.yul\":6644:6648   */\n      0x00\n        /* \"#utility.yul\":6637:6642   */\n      dup4\n        /* \"#utility.yul\":6633:6649   */\n      add\n        /* \"#utility.yul\":6627:6650   */\n      mload\n        /* \"#utility.yul\":6663:6726   */\n      tag_214\n        /* \"#utility.yul\":6720:6724   */\n      0x00\n        /* \"#utility.yul\":6715:6718   */\n      dup7\n        /* \"#utility.yul\":6711:6725   */\n      add\n        /* \"#utility.yul\":6697:6709   */\n      dup3\n        /* \"#utility.yul\":6663:6726   */\n      tag_148\n      jump\t// in\n    tag_214:\n        /* \"#utility.yul\":6569:6736   */\n      pop\n        /* \"#utility.yul\":6818:6822   */\n      0x20\n        /* \"#utility.yul\":6811:6816   */\n      dup4\n        /* \"#utility.yul\":6807:6823   */\n      add\n        /* \"#utility.yul\":6801:6824   */\n      mload\n        /* \"#utility.yul\":6871:6874   */\n      dup5\n        /* \"#utility.yul\":6865:6869   */\n      dup3\n        /* \"#utility.yul\":6861:6875   */\n      sub\n        /* \"#utility.yul\":6854:6858   */\n      0x20\n        /* \"#utility.yul\":6849:6852   */\n      dup7\n        /* \"#utility.yul\":6845:6859   */\n      add\n        /* \"#utility.yul\":6838:6876   */\n      mstore\n        /* \"#utility.yul\":6897:6970   */\n      tag_215\n        /* \"#utility.yul\":6965:6969   */\n      dup3\n        /* \"#utility.yul\":6951:6963   */\n      dup3\n        /* \"#utility.yul\":6897:6970   */\n      tag_187\n      jump\t// in\n    tag_215:\n        /* \"#utility.yul\":6889:6970   */\n      swap2\n      pop\n        /* \"#utility.yul\":6746:6981   */\n      pop\n        /* \"#utility.yul\":7070:7074   */\n      0x40\n        /* \"#utility.yul\":7063:7068   */\n      dup4\n        /* \"#utility.yul\":7059:7075   */\n      add\n        /* \"#utility.yul\":7053:7076   */\n      mload\n        /* \"#utility.yul\":7123:7126   */\n      dup5\n        /* \"#utility.yul\":7117:7121   */\n      dup3\n        /* \"#utility.yul\":7113:7127   */\n      sub\n        /* \"#utility.yul\":7106:7110   */\n      0x40\n        /* \"#utility.yul\":7101:7104   */\n      dup7\n        /* \"#utility.yul\":7097:7111   */\n      add\n        /* \"#utility.yul\":7090:7128   */\n      mstore\n        /* \"#utility.yul\":7149:7222   */\n      tag_216\n        /* \"#utility.yul\":7217:7221   */\n      dup3\n        /* \"#utility.yul\":7203:7215   */\n      dup3\n        /* \"#utility.yul\":7149:7222   */\n      tag_187\n      jump\t// in\n    tag_216:\n        /* \"#utility.yul\":7141:7222   */\n      swap2\n      pop\n        /* \"#utility.yul\":6991:7233   */\n      pop\n        /* \"#utility.yul\":7325:7329   */\n      0x60\n        /* \"#utility.yul\":7318:7323   */\n      dup4\n        /* \"#utility.yul\":7314:7330   */\n      add\n        /* \"#utility.yul\":7308:7331   */\n      mload\n        /* \"#utility.yul\":7344:7407   */\n      tag_217\n        /* \"#utility.yul\":7401:7405   */\n      0x60\n        /* \"#utility.yul\":7396:7399   */\n      dup7\n        /* \"#utility.yul\":7392:7406   */\n      add\n        /* \"#utility.yul\":7378:7390   */\n      dup3\n        /* \"#utility.yul\":7344:7407   */\n      tag_218\n      jump\t// in\n    tag_217:\n        /* \"#utility.yul\":7243:7417   */\n      pop\n        /* \"#utility.yul\":7508:7512   */\n      0x80\n        /* \"#utility.yul\":7501:7506   */\n      dup4\n        /* \"#utility.yul\":7497:7513   */\n      add\n        /* \"#utility.yul\":7491:7514   */\n      mload\n        /* \"#utility.yul\":7527:7590   */\n      tag_219\n        /* \"#utility.yul\":7584:7588   */\n      0x80\n        /* \"#utility.yul\":7579:7582   */\n      dup7\n        /* \"#utility.yul\":7575:7589   */\n      add\n        /* \"#utility.yul\":7561:7573   */\n      dup3\n        /* \"#utility.yul\":7527:7590   */\n      tag_218\n      jump\t// in\n    tag_219:\n        /* \"#utility.yul\":7427:7600   */\n      pop\n        /* \"#utility.yul\":7617:7621   */\n      dup1\n        /* \"#utility.yul\":7610:7621   */\n      swap2\n      pop\n        /* \"#utility.yul\":6523:7627   */\n      pop\n      swap3\n      swap2\n      pop\n      pop\n      jump\t// out\n        /* \"#utility.yul\":7633:7741   */\n    tag_218:\n        /* \"#utility.yul\":7710:7734   */\n      tag_221\n        /* \"#utility.yul\":7728:7733   */\n      dup2\n        /* \"#utility.yul\":7710:7734   */\n      tag_222\n      jump\t// in\n    tag_221:\n        /* \"#utility.yul\":7705:7708   */\n      dup3\n        /* \"#utility.yul\":7698:7735   */\n      mstore\n        /* \"#utility.yul\":7688:7741   */\n      pop\n      pop\n      jump\t// out\n        /* \"#utility.yul\":7747:7969   */\n    tag_22:\n      0x00\n        /* \"#utility.yul\":7878:7880   */\n      0x20\n        /* \"#utility.yul\":7867:7876   */\n      dup3\n        /* \"#utility.yul\":7863:7881   */\n      add\n        /* \"#utility.yul\":7855:7881   */\n      swap1\n      pop\n        /* \"#utility.yul\":7891:7962   */\n      tag_224\n        /* \"#utility.yul\":7959:7960   */\n      0x00\n        /* \"#utility.yul\":7948:7957   */\n      dup4\n        /* \"#utility.yul\":7944:7961   */\n      add\n        /* \"#utility.yul\":7935:7941   */\n      dup5\n        /* \"#utility.yul\":7891:7962   */\n      tag_156\n      jump\t// in\n    tag_224:\n        /* \"#utility.yul\":7845:7969   */\n      swap3\n      swap2\n      pop\n      pop\n      jump\t// out\n        /* \"#utility.yul\":7975:8348   */\n    tag_33:\n      0x00\n        /* \"#utility.yul\":8156:8158   */\n      0x20\n        /* \"#utility.yul\":8145:8154   */\n      dup3\n        /* \"#utility.yul\":8141:8159   */\n      add\n        /* \"#utility.yul\":8133:8159   */\n      swap1\n      pop\n        /* \"#utility.yul\":8205:8214   */\n      dup2\n        /* \"#utility.yul\":8199:8203   */\n      dup2\n        /* \"#utility.yul\":8195:8215   */\n      sub\n        /* \"#utility.yul\":8191:8192   */\n      0x00\n        /* \"#utility.yul\":8180:8189   */\n      dup4\n        /* \"#utility.yul\":8176:8193   */\n      add\n        /* \"#utility.yul\":8169:8216   */\n      mstore\n        /* \"#utility.yul\":8233:8341   */\n      tag_226\n        /* \"#utility.yul\":8336:8340   */\n      dup2\n        /* \"#utility.yul\":8327:8333   */\n      dup5\n        /* \"#utility.yul\":8233:8341   */\n      tag_159\n      jump\t// in\n    tag_226:\n        /* \"#utility.yul\":8225:8341   */\n      swap1\n      pop\n        /* \"#utility.yul\":8123:8348   */\n      swap3\n      swap2\n      pop\n      pop\n      jump\t// out\n        /* \"#utility.yul\":8354:8819   */\n    tag_17:\n      0x00\n        /* \"#utility.yul\":8581:8583   */\n      0x20\n        /* \"#utility.yul\":8570:8579   */\n      dup3\n        /* \"#utility.yul\":8566:8584   */\n      add\n        /* \"#utility.yul\":8558:8584   */\n      swap1\n      pop\n        /* \"#utility.yul\":8630:8639   */\n      dup2\n        /* \"#utility.yul\":8624:8628   */\n      dup2\n        /* \"#utility.yul\":8620:8640   */\n      sub\n        /* \"#utility.yul\":8616:8617   */\n      0x00\n        /* \"#utility.yul\":8605:8614   */\n      dup4\n        /* \"#utility.yul\":8601:8618   */\n      add\n        /* \"#utility.yul\":8594:8641   */\n      mstore\n        /* \"#utility.yul\":8658:8812   */\n      tag_228\n        /* \"#utility.yul\":8807:8811   */\n      dup2\n        /* \"#utility.yul\":8798:8804   */\n      dup5\n        /* \"#utility.yul\":8658:8812   */\n      tag_173\n      jump\t// in\n    tag_228:\n        /* \"#utility.yul\":8650:8812   */\n      swap1\n      pop\n        /* \"#utility.yul\":8548:8819   */\n      swap3\n      swap2\n      pop\n      pop\n      jump\t// out\n        /* \"#utility.yul\":8825:9244   */\n    tag_41:\n      0x00\n        /* \"#utility.yul\":9029:9031   */\n      0x20\n        /* \"#utility.yul\":9018:9027   */\n      dup3\n        /* \"#utility.yul\":9014:9032   */\n      add\n        /* \"#utility.yul\":9006:9032   */\n      swap1\n      pop\n        /* \"#utility.yul\":9078:9087   */\n      dup2\n        /* \"#utility.yul\":9072:9076   */\n      dup2\n        /* \"#utility.yul\":9068:9088   */\n      sub\n        /* \"#utility.yul\":9064:9065   */\n      0x00\n        /* \"#utility.yul\":9053:9062   */\n      dup4\n        /* \"#utility.yul\":9049:9066   */\n      add\n        /* \"#utility.yul\":9042:9089   */\n      mstore\n        /* \"#utility.yul\":9106:9237   */\n      tag_230\n        /* \"#utility.yul\":9232:9236   */\n      dup2\n        /* \"#utility.yul\":9106:9237   */\n      tag_197\n      jump\t// in\n    tag_230:\n        /* \"#utility.yul\":9098:9237   */\n      swap1\n      pop\n        /* \"#utility.yul\":8996:9244   */\n      swap2\n      swap1\n      pop\n      jump\t// out\n        /* \"#utility.yul\":9250:9669   */\n    tag_90:\n      0x00\n        /* \"#utility.yul\":9454:9456   */\n      0x20\n        /* \"#utility.yul\":9443:9452   */\n      dup3\n        /* \"#utility.yul\":9439:9457   */\n      add\n        /* \"#utility.yul\":9431:9457   */\n      swap1\n      pop\n        /* \"#utility.yul\":9503:9512   */\n      dup2\n        /* \"#utility.yul\":9497:9501   */\n      dup2\n        /* \"#utility.yul\":9493:9513   */\n      sub\n        /* \"#utility.yul\":9489:9490   */\n      0x00\n        /* \"#utility.yul\":9478:9487   */\n      dup4\n        /* \"#utility.yul\":9474:9491   */\n      add\n        /* \"#utility.yul\":9467:9514   */\n      mstore\n        /* \"#utility.yul\":9531:9662   */\n      tag_232\n        /* \"#utility.yul\":9657:9661   */\n      dup2\n        /* \"#utility.yul\":9531:9662   */\n      tag_203\n      jump\t// in\n    tag_232:\n        /* \"#utility.yul\":9523:9662   */\n      swap1\n      pop\n        /* \"#utility.yul\":9421:9669   */\n      swap2\n      swap1\n      pop\n      jump\t// out\n        /* \"#utility.yul\":9675:10094   */\n    tag_73:\n      0x00\n        /* \"#utility.yul\":9879:9881   */\n      0x20\n        /* \"#utility.yul\":9868:9877   */\n      dup3\n        /* \"#utility.yul\":9864:9882   */\n      add\n        /* \"#utility.yul\":9856:9882   */\n      swap1\n      pop\n        /* \"#utility.yul\":9928:9937   */\n      dup2\n        /* \"#utility.yul\":9922:9926   */\n      dup2\n        /* \"#utility.yul\":9918:9938   */\n      sub\n        /* \"#utility.yul\":9914:9915   */\n      0x00\n        /* \"#utility.yul\":9903:9912   */\n      dup4\n        /* \"#utility.yul\":9899:9916   */\n      add\n        /* \"#utility.yul\":9892:9939   */\n      mstore\n        /* \"#utility.yul\":9956:10087   */\n      tag_234\n        /* \"#utility.yul\":10082:10086   */\n      dup2\n        /* \"#utility.yul\":9956:10087   */\n      tag_208\n      jump\t// in\n    tag_234:\n        /* \"#utility.yul\":9948:10087   */\n      swap1\n      pop\n        /* \"#utility.yul\":9846:10094   */\n      swap2\n      swap1\n      pop\n      jump\t// out\n        /* \"#utility.yul\":10100:10229   */\n    tag_116:\n      0x00\n        /* \"#utility.yul\":10161:10181   */\n      tag_236\n      tag_237\n      jump\t// in\n    tag_236:\n        /* \"#utility.yul\":10151:10181   */\n      swap1\n      pop\n        /* \"#utility.yul\":10190:10223   */\n      tag_238\n        /* \"#utility.yul\":10218:10222   */\n      dup3\n        /* \"#utility.yul\":10210:10216   */\n      dup3\n        /* \"#utility.yul\":10190:10223   */\n      tag_239\n      jump\t// in\n    tag_238:\n        /* \"#utility.yul\":10141:10229   */\n      swap2\n      swap1\n      pop\n      jump\t// out\n        /* \"#utility.yul\":10235:10310   */\n    tag_237:\n      0x00\n        /* \"#utility.yul\":10301:10303   */\n      0x40\n        /* \"#utility.yul\":10295:10304   */\n      mload\n        /* \"#utility.yul\":10285:10304   */\n      swap1\n      pop\n        /* \"#utility.yul\":10275:10310   */\n      swap1\n      jump\t// out\n        /* \"#utility.yul\":10316:10624   */\n    tag_115:\n      0x00\n        /* \"#utility.yul\":10468:10486   */\n      0xffffffffffffffff\n        /* \"#utility.yul\":10460:10466   */\n      dup3\n        /* \"#utility.yul\":10457:10487   */\n      gt\n        /* \"#utility.yul\":10454:10456   */\n      iszero\n      tag_242\n      jumpi\n        /* \"#utility.yul\":10490:10508   */\n      tag_243\n      tag_244\n      jump\t// in\n    tag_243:\n        /* \"#utility.yul\":10454:10456   */\n    tag_242:\n        /* \"#utility.yul\":10528:10557   */\n      tag_245\n        /* \"#utility.yul\":10550:10556   */\n      dup3\n        /* \"#utility.yul\":10528:10557   */\n      tag_196\n      jump\t// in\n    tag_245:\n        /* \"#utility.yul\":10520:10557   */\n      swap1\n      pop\n        /* \"#utility.yul\":10612:10616   */\n      0x20\n        /* \"#utility.yul\":10606:10610   */\n      dup2\n        /* \"#utility.yul\":10602:10617   */\n      add\n        /* \"#utility.yul\":10594:10617   */\n      swap1\n      pop\n        /* \"#utility.yul\":10383:10624   */\n      swap2\n      swap1\n      pop\n      jump\t// out\n        /* \"#utility.yul\":10630:10762   */\n    tag_166:\n      0x00\n        /* \"#utility.yul\":10720:10723   */\n      dup2\n        /* \"#utility.yul\":10712:10723   */\n      swap1\n      pop\n        /* \"#utility.yul\":10750:10754   */\n      0x20\n        /* \"#utility.yul\":10745:10748   */\n      dup3\n        /* \"#utility.yul\":10741:10755   */\n      add\n        /* \"#utility.yul\":10733:10755   */\n      swap1\n      pop\n        /* \"#utility.yul\":10702:10762   */\n      swap2\n      swap1\n      pop\n      jump\t// out\n        /* \"#utility.yul\":10768:10923   */\n    tag_180:\n      0x00\n        /* \"#utility.yul\":10881:10884   */\n      dup2\n        /* \"#utility.yul\":10873:10884   */\n      swap1\n      pop\n        /* \"#utility.yul\":10911:10915   */\n      0x20\n        /* \"#utility.yul\":10906:10909   */\n      dup3\n        /* \"#utility.yul\":10902:10916   */\n      add\n        /* \"#utility.yul\":10894:10916   */\n      swap1\n      pop\n        /* \"#utility.yul\":10863:10923   */\n      swap2\n      swap1\n      pop\n      jump\t// out\n        /* \"#utility.yul\":10929:11043   */\n    tag_162:\n      0x00\n        /* \"#utility.yul\":11030:11035   */\n      dup2\n        /* \"#utility.yul\":11024:11036   */\n      mload\n        /* \"#utility.yul\":11014:11036   */\n      swap1\n      pop\n        /* \"#utility.yul\":11003:11043   */\n      swap2\n      swap1\n      pop\n      jump\t// out\n        /* \"#utility.yul\":11049:11186   */\n    tag_176:\n      0x00\n        /* \"#utility.yul\":11173:11178   */\n      dup2\n        /* \"#utility.yul\":11167:11179   */\n      mload\n        /* \"#utility.yul\":11157:11179   */\n      swap1\n      pop\n        /* \"#utility.yul\":11146:11186   */\n      swap2\n      swap1\n      pop\n      jump\t// out\n        /* \"#utility.yul\":11192:11291   */\n    tag_190:\n      0x00\n        /* \"#utility.yul\":11278:11283   */\n      dup2\n        /* \"#utility.yul\":11272:11284   */\n      mload\n        /* \"#utility.yul\":11262:11284   */\n      swap1\n      pop\n        /* \"#utility.yul\":11251:11291   */\n      swap2\n      swap1\n      pop\n      jump\t// out\n        /* \"#utility.yul\":11297:11410   */\n    tag_172:\n      0x00\n        /* \"#utility.yul\":11399:11403   */\n      0x20\n        /* \"#utility.yul\":11394:11397   */\n      dup3\n        /* \"#utility.yul\":11390:11404   */\n      add\n        /* \"#utility.yul\":11382:11404   */\n      swap1\n      pop\n        /* \"#utility.yul\":11372:11410   */\n      swap2\n      swap1\n      pop\n      jump\t// out\n        /* \"#utility.yul\":11416:11552   */\n    tag_186:\n      0x00\n        /* \"#utility.yul\":11541:11545   */\n      0x20\n        /* \"#utility.yul\":11536:11539   */\n      dup3\n        /* \"#utility.yul\":11532:11546   */\n      add\n        /* \"#utility.yul\":11524:11546   */\n      swap1\n      pop\n        /* \"#utility.yul\":11514:11552   */\n      swap2\n      swap1\n      pop\n      jump\t// out\n        /* \"#utility.yul\":11558:11742   */\n    tag_164:\n      0x00\n        /* \"#utility.yul\":11691:11697   */\n      dup3\n        /* \"#utility.yul\":11686:11689   */\n      dup3\n        /* \"#utility.yul\":11679:11698   */\n      mstore\n        /* \"#utility.yul\":11731:11735   */\n      0x20\n        /* \"#utility.yul\":11726:11729   */\n      dup3\n        /* \"#utility.yul\":11722:11736   */\n      add\n        /* \"#utility.yul\":11707:11736   */\n      swap1\n      pop\n        /* \"#utility.yul\":11669:11742   */\n      swap3\n      swap2\n      pop\n      pop\n      jump\t// out\n        /* \"#utility.yul\":11748:11955   */\n    tag_178:\n      0x00\n        /* \"#utility.yul\":11904:11910   */\n      dup3\n        /* \"#utility.yul\":11899:11902   */\n      dup3\n        /* \"#utility.yul\":11892:11911   */\n      mstore\n        /* \"#utility.yul\":11944:11948   */\n      0x20\n        /* \"#utility.yul\":11939:11942   */\n      dup3\n        /* \"#utility.yul\":11935:11949   */\n      add\n        /* \"#utility.yul\":11920:11949   */\n      swap1\n      pop\n        /* \"#utility.yul\":11882:11955   */\n      swap3\n      swap2\n      pop\n      pop\n      jump\t// out\n        /* \"#utility.yul\":11961:12120   */\n    tag_192:\n      0x00\n        /* \"#utility.yul\":12069:12075   */\n      dup3\n        /* \"#utility.yul\":12064:12067   */\n      dup3\n        /* \"#utility.yul\":12057:12076   */\n      mstore\n        /* \"#utility.yul\":12109:12113   */\n      0x20\n        /* \"#utility.yul\":12104:12107   */\n      dup3\n        /* \"#utility.yul\":12100:12114   */\n      add\n        /* \"#utility.yul\":12085:12114   */\n      swap1\n      pop\n        /* \"#utility.yul\":12047:12120   */\n      swap3\n      swap2\n      pop\n      pop\n      jump\t// out\n        /* \"#utility.yul\":12126:12295   */\n    tag_200:\n      0x00\n        /* \"#utility.yul\":12244:12250   */\n      dup3\n        /* \"#utility.yul\":12239:12242   */\n      dup3\n        /* \"#utility.yul\":12232:12251   */\n      mstore\n        /* \"#utility.yul\":12284:12288   */\n      0x20\n        /* \"#utility.yul\":12279:12282   */\n      dup3\n        /* \"#utility.yul\":12275:12289   */\n      add\n        /* \"#utility.yul\":12260:12289   */\n      swap1\n      pop\n        /* \"#utility.yul\":12222:12295   */\n      swap3\n      swap2\n      pop\n      pop\n      jump\t// out\n        /* \"#utility.yul\":12301:12606   */\n    tag_86:\n      0x00\n        /* \"#utility.yul\":12360:12380   */\n      tag_258\n        /* \"#utility.yul\":12378:12379   */\n      dup3\n        /* \"#utility.yul\":12360:12380   */\n      tag_222\n      jump\t// in\n    tag_258:\n        /* \"#utility.yul\":12355:12380   */\n      swap2\n      pop\n        /* \"#utility.yul\":12394:12414   */\n      tag_259\n        /* \"#utility.yul\":12412:12413   */\n      dup4\n        /* \"#utility.yul\":12394:12414   */\n      tag_222\n      jump\t// in\n    tag_259:\n        /* \"#utility.yul\":12389:12414   */\n      swap3\n      pop\n        /* \"#utility.yul\":12548:12549   */\n      dup3\n        /* \"#utility.yul\":12480:12546   */\n      0xffffffffffffffffffffffffffffffffffffffffffffffffffffffffffffffff\n        /* \"#utility.yul\":12476:12550   */\n      sub\n        /* \"#utility.yul\":12473:12474   */\n      dup3\n        /* \"#utility.yul\":12470:12551   */\n      gt\n        /* \"#utility.yul\":12467:12469   */\n      iszero\n      tag_260\n      jumpi\n        /* \"#utility.yul\":12554:12572   */\n      tag_261\n      tag_262\n      jump\t// in\n    tag_261:\n        /* \"#utility.yul\":12467:12469   */\n    tag_260:\n        /* \"#utility.yul\":12598:12599   */\n      dup3\n        /* \"#utility.yul\":12595:12596   */\n      dup3\n        /* \"#utility.yul\":12591:12600   */\n      add\n        /* \"#utility.yul\":12584:12600   */\n      swap1\n      pop\n        /* \"#utility.yul\":12345:12606   */\n      swap3\n      swap2\n      pop\n      pop\n      jump\t// out\n        /* \"#utility.yul\":12612:12960   */\n    tag_44:\n      0x00\n        /* \"#utility.yul\":12675:12695   */\n      tag_264\n        /* \"#utility.yul\":12693:12694   */\n      dup3\n        /* \"#utility.yul\":12675:12695   */\n      tag_222\n      jump\t// in\n    tag_264:\n        /* \"#utility.yul\":12670:12695   */\n      swap2\n      pop\n        /* \"#utility.yul\":12709:12729   */\n      tag_265\n        /* \"#utility.yul\":12727:12728   */\n      dup4\n        /* \"#utility.yul\":12709:12729   */\n      tag_222\n      jump\t// in\n    tag_265:\n        /* \"#utility.yul\":12704:12729   */\n      swap3\n      pop\n        /* \"#utility.yul\":12897:12898   */\n      dup2\n        /* \"#utility.yul\":12829:12895   */\n      0xffffffffffffffffffffffffffffffffffffffffffffffffffffffffffffffff\n        /* \"#utility.yul\":12825:12899   */\n      div\n        /* \"#utility.yul\":12822:12823   */\n      dup4\n        /* \"#utility.yul\":12819:12900   */\n      gt\n        /* \"#utility.yul\":12814:12815   */\n      dup3\n        /* \"#utility.yul\":12807:12816   */\n      iszero\n        /* \"#utility.yul\":12800:12817   */\n      iszero\n        /* \"#utility.yul\":12796:12901   */\n      and\n        /* \"#utility.yul\":12793:12795   */\n      iszero\n      tag_266\n      jumpi\n        /* \"#utility.yul\":12904:12922   */\n      tag_267\n      tag_262\n      jump\t// in\n    tag_267:\n        /* \"#utility.yul\":12793:12795   */\n    tag_266:\n        /* \"#utility.yul\":12952:12953   */\n      dup3\n        /* \"#utility.yul\":12949:12950   */\n      dup3\n        /* \"#utility.yul\":12945:12954   */\n      mul\n        /* \"#utility.yul\":12934:12954   */\n      swap1\n      pop\n        /* \"#utility.yul\":12660:12960   */\n      swap3\n      swap2\n      pop\n      pop\n      jump\t// out\n        /* \"#utility.yul\":12966:13062   */\n    tag_155:\n      0x00\n        /* \"#utility.yul\":13032:13056   */\n      tag_269\n        /* \"#utility.yul\":13050:13055   */\n      dup3\n        /* \"#utility.yul\":13032:13056   */\n      tag_270\n      jump\t// in\n    tag_269:\n        /* \"#utility.yul\":13021:13056   */\n      swap1\n      pop\n        /* \"#utility.yul\":13011:13062   */\n      swap2\n      swap1\n      pop\n      jump\t// out\n        /* \"#utility.yul\":13068:13194   */\n    tag_270:\n      0x00\n        /* \"#utility.yul\":13145:13187   */\n      0xffffffffffffffffffffffffffffffffffffffff\n        /* \"#utility.yul\":13138:13143   */\n      dup3\n        /* \"#utility.yul\":13134:13188   */\n      and\n        /* \"#utility.yul\":13123:13188   */\n      swap1\n      pop\n        /* \"#utility.yul\":13113:13194   */\n      swap2\n      swap1\n      pop\n      jump\t// out\n        /* \"#utility.yul\":13200:13277   */\n    tag_222:\n      0x00\n        /* \"#utility.yul\":13266:13271   */\n      dup2\n        /* \"#utility.yul\":13255:13271   */\n      swap1\n      pop\n        /* \"#utility.yul\":13245:13277   */\n      swap2\n      swap1\n      pop\n      jump\t// out\n        /* \"#utility.yul\":13283:13437   */\n    tag_119:\n        /* \"#utility.yul\":13367:13373   */\n      dup3\n        /* \"#utility.yul\":13362:13365   */\n      dup2\n        /* \"#utility.yul\":13357:13360   */\n      dup4\n        /* \"#utility.yul\":13344:13374   */\n      calldatacopy\n        /* \"#utility.yul\":13429:13430   */\n      0x00\n        /* \"#utility.yul\":13420:13426   */\n      dup4\n        /* \"#utility.yul\":13415:13418   */\n      dup4\n        /* \"#utility.yul\":13411:13427   */\n      add\n        /* \"#utility.yul\":13404:13431   */\n      mstore\n        /* \"#utility.yul\":13334:13437   */\n      pop\n      pop\n      pop\n      jump\t// out\n        /* \"#utility.yul\":13443:13750   */\n    tag_194:\n        /* \"#utility.yul\":13511:13512   */\n      0x00\n        /* \"#utility.yul\":13521:13634   */\n    tag_275:\n        /* \"#utility.yul\":13535:13541   */\n      dup4\n        /* \"#utility.yul\":13532:13533   */\n      dup2\n        /* \"#utility.yul\":13529:13542   */\n      lt\n        /* \"#utility.yul\":13521:13634   */\n      iszero\n      tag_277\n      jumpi\n        /* \"#utility.yul\":13620:13621   */\n      dup1\n        /* \"#utility.yul\":13615:13618   */\n      dup3\n        /* \"#utility.yul\":13611:13622   */\n      add\n        /* \"#utility.yul\":13605:13623   */\n      mload\n        /* \"#utility.yul\":13601:13602   */\n      dup2\n        /* \"#utility.yul\":13596:13599   */\n      dup5\n        /* \"#utility.yul\":13592:13603   */\n      add\n        /* \"#utility.yul\":13585:13624   */\n      mstore\n        /* \"#utility.yul\":13557:13559   */\n      0x20\n        /* \"#utility.yul\":13554:13555   */\n      dup2\n        /* \"#utility.yul\":13550:13560   */\n      add\n        /* \"#utility.yul\":13545:13560   */\n      swap1\n      pop\n        /* \"#utility.yul\":13521:13634   */\n      jump(tag_275)\n    tag_277:\n        /* \"#utility.yul\":13652:13658   */\n      dup4\n        /* \"#utility.yul\":13649:13650   */\n      dup2\n        /* \"#utility.yul\":13646:13659   */\n      gt\n        /* \"#utility.yul\":13643:13645   */\n      iszero\n      tag_278\n      jumpi\n        /* \"#utility.yul\":13732:13733   */\n      0x00\n        /* \"#utility.yul\":13723:13729   */\n      dup5\n        /* \"#utility.yul\":13718:13721   */\n      dup5\n        /* \"#utility.yul\":13714:13730   */\n      add\n        /* \"#utility.yul\":13707:13734   */\n      mstore\n        /* \"#utility.yul\":13643:13645   */\n    tag_278:\n        /* \"#utility.yul\":13492:13750   */\n      pop\n      pop\n      pop\n      pop\n      jump\t// out\n        /* \"#utility.yul\":13756:14076   */\n    tag_55:\n      0x00\n        /* \"#utility.yul\":13837:13838   */\n      0x02\n        /* \"#utility.yul\":13831:13835   */\n      dup3\n        /* \"#utility.yul\":13827:13839   */\n      div\n        /* \"#utility.yul\":13817:13839   */\n      swap1\n      pop\n        /* \"#utility.yul\":13884:13885   */\n      0x01\n        /* \"#utility.yul\":13878:13882   */\n      dup3\n        /* \"#utility.yul\":13874:13886   */\n      and\n        /* \"#utility.yul\":13905:13923   */\n      dup1\n        /* \"#utility.yul\":13895:13897   */\n      tag_280\n      jumpi\n        /* \"#utility.yul\":13961:13965   */\n      0x7f\n        /* \"#utility.yul\":13953:13959   */\n      dup3\n        /* \"#utility.yul\":13949:13966   */\n      and\n        /* \"#utility.yul\":13939:13966   */\n      swap2\n      pop\n        /* \"#utility.yul\":13895:13897   */\n    tag_280:\n        /* \"#utility.yul\":14023:14025   */\n      0x20\n        /* \"#utility.yul\":14015:14021   */\n      dup3\n        /* \"#utility.yul\":14012:14026   */\n      lt\n        /* \"#utility.yul\":13992:14010   */\n      dup2\n        /* \"#utility.yul\":13989:14027   */\n      eq\n        /* \"#utility.yul\":13986:13988   */\n      iszero\n      tag_281\n      jumpi\n        /* \"#utility.yul\":14042:14060   */\n      tag_282\n      tag_283\n      jump\t// in\n    tag_282:\n        /* \"#utility.yul\":13986:13988   */\n    tag_281:\n        /* \"#utility.yul\":13807:14076   */\n      pop\n      swap2\n      swap1\n      pop\n      jump\t// out\n        /* \"#utility.yul\":14082:14363   */\n    tag_239:\n        /* \"#utility.yul\":14165:14192   */\n      tag_285\n        /* \"#utility.yul\":14187:14191   */\n      dup3\n        /* \"#utility.yul\":14165:14192   */\n      tag_196\n      jump\t// in\n    tag_285:\n        /* \"#utility.yul\":14157:14163   */\n      dup2\n        /* \"#utility.yul\":14153:14193   */\n      add\n        /* \"#utility.yul\":14295:14301   */\n      dup2\n        /* \"#utility.yul\":14283:14293   */\n      dup2\n        /* \"#utility.yul\":14280:14302   */\n      lt\n        /* \"#utility.yul\":14259:14277   */\n      0xffffffffffffffff\n        /* \"#utility.yul\":14247:14257   */\n      dup3\n        /* \"#utility.yul\":14244:14278   */\n      gt\n        /* \"#utility.yul\":14241:14303   */\n      or\n        /* \"#utility.yul\":14238:14240   */\n      iszero\n      tag_286\n      jumpi\n        /* \"#utility.yul\":14306:14324   */\n      tag_287\n      tag_244\n      jump\t// in\n    tag_287:\n        /* \"#utility.yul\":14238:14240   */\n    tag_286:\n        /* \"#utility.yul\":14346:14356   */\n      dup1\n        /* \"#utility.yul\":14342:14344   */\n      0x40\n        /* \"#utility.yul\":14335:14357   */\n      mstore\n        /* \"#utility.yul\":14125:14363   */\n      pop\n      pop\n      pop\n      jump\t// out\n        /* \"#utility.yul\":14369:14602   */\n    tag_99:\n      0x00\n        /* \"#utility.yul\":14431:14455   */\n      tag_289\n        /* \"#utility.yul\":14449:14454   */\n      dup3\n        /* \"#utility.yul\":14431:14455   */\n      tag_222\n      jump\t// in\n    tag_289:\n        /* \"#utility.yul\":14422:14455   */\n      swap2\n      pop\n        /* \"#utility.yul\":14477:14543   */\n      0xffffffffffffffffffffffffffffffffffffffffffffffffffffffffffffffff\n        /* \"#utility.yul\":14470:14475   */\n      dup3\n        /* \"#utility.yul\":14467:14544   */\n      eq\n        /* \"#utility.yul\":14464:14466   */\n      iszero\n      tag_290\n      jumpi\n        /* \"#utility.yul\":14547:14565   */\n      tag_291\n      tag_262\n      jump\t// in\n    tag_291:\n        /* \"#utility.yul\":14464:14466   */\n    tag_290:\n        /* \"#utility.yul\":14594:14595   */\n      0x01\n        /* \"#utility.yul\":14587:14592   */\n      dup3\n        /* \"#utility.yul\":14583:14596   */\n      add\n        /* \"#utility.yul\":14576:14596   */\n      swap1\n      pop\n        /* \"#utility.yul\":14412:14602   */\n      swap2\n      swap1\n      pop\n      jump\t// out\n        /* \"#utility.yul\":14608:14788   */\n    tag_262:\n        /* \"#utility.yul\":14656:14733   */\n      0x4e487b7100000000000000000000000000000000000000000000000000000000\n        /* \"#utility.yul\":14653:14654   */\n      0x00\n        /* \"#utility.yul\":14646:14734   */\n      mstore\n        /* \"#utility.yul\":14753:14757   */\n      0x11\n        /* \"#utility.yul\":14750:14751   */\n      0x04\n        /* \"#utility.yul\":14743:14758   */\n      mstore\n        /* \"#utility.yul\":14777:14781   */\n      0x24\n        /* \"#utility.yul\":14774:14775   */\n      0x00\n        /* \"#utility.yul\":14767:14782   */\n      revert\n        /* \"#utility.yul\":14794:14974   */\n    tag_283:\n        /* \"#utility.yul\":14842:14919   */\n      0x4e487b7100000000000000000000000000000000000000000000000000000000\n        /* \"#utility.yul\":14839:14840   */\n      0x00\n        /* \"#utility.yul\":14832:14920   */\n      mstore\n        /* \"#utility.yul\":14939:14943   */\n      0x22\n        /* \"#utility.yul\":14936:14937   */\n      0x04\n        /* \"#utility.yul\":14929:14944   */\n      mstore\n        /* \"#utility.yul\":14963:14967   */\n      0x24\n        /* \"#utility.yul\":14960:14961   */\n      0x00\n        /* \"#utility.yul\":14953:14968   */\n      revert\n        /* \"#utility.yul\":14980:15160   */\n    tag_244:\n        /* \"#utility.yul\":15028:15105   */\n      0x4e487b7100000000000000000000000000000000000000000000000000000000\n        /* \"#utility.yul\":15025:15026   */\n      0x00\n        /* \"#utility.yul\":15018:15106   */\n      mstore\n        /* \"#utility.yul\":15125:15129   */\n      0x41\n        /* \"#utility.yul\":15122:15123   */\n      0x04\n        /* \"#utility.yul\":15115:15130   */\n      mstore\n        /* \"#utility.yul\":15149:15153   */\n      0x24\n        /* \"#utility.yul\":15146:15147   */\n      0x00\n        /* \"#utility.yul\":15139:15154   */\n      revert\n        /* \"#utility.yul\":15166:15268   */\n    tag_196:\n      0x00\n        /* \"#utility.yul\":15258:15260   */\n      0x1f\n        /* \"#utility.yul\":15254:15261   */\n      not\n        /* \"#utility.yul\":15249:15251   */\n      0x1f\n        /* \"#utility.yul\":15242:15247   */\n      dup4\n        /* \"#utility.yul\":15238:15252   */\n      add\n        /* \"#utility.yul\":15234:15262   */\n      and\n        /* \"#utility.yul\":15224:15262   */\n      swap1\n      pop\n        /* \"#utility.yul\":15214:15268   */\n      swap2\n      swap1\n      pop\n      jump\t// out\n        /* \"#utility.yul\":15274:15454   */\n    tag_202:\n        /* \"#utility.yul\":15414:15446   */\n      0x4d616e616765722063616e206e6f74206372656174652043616d7061696e0000\n        /* \"#utility.yul\":15410:15411   */\n      0x00\n        /* \"#utility.yul\":15402:15408   */\n      dup3\n        /* \"#utility.yul\":15398:15412   */\n      add\n        /* \"#utility.yul\":15391:15447   */\n      mstore\n        /* \"#utility.yul\":15380:15454   */\n      pop\n      jump\t// out\n        /* \"#utility.yul\":15460:15639   */\n    tag_207:\n        /* \"#utility.yul\":15600:15631   */\n      0x526571756972656420616d6f756e74206c696d69742065786365656473000000\n        /* \"#utility.yul\":15596:15597   */\n      0x00\n        /* \"#utility.yul\":15588:15594   */\n      dup3\n        /* \"#utility.yul\":15584:15598   */\n      add\n        /* \"#utility.yul\":15577:15632   */\n      mstore\n        /* \"#utility.yul\":15566:15639   */\n      pop\n      jump\t// out\n        /* \"#utility.yul\":15645:15874   */\n    tag_212:\n        /* \"#utility.yul\":15785:15819   */\n      0x596f757220636f6e747269627574696f6e206d7573742062652031206f72206d\n        /* \"#utility.yul\":15781:15782   */\n      0x00\n        /* \"#utility.yul\":15773:15779   */\n      dup3\n        /* \"#utility.yul\":15769:15783   */\n      add\n        /* \"#utility.yul\":15762:15820   */\n      mstore\n        /* \"#utility.yul\":15854:15866   */\n      0x6f72652065746865727300000000000000000000000000000000000000000000\n        /* \"#utility.yul\":15849:15851   */\n      0x20\n        /* \"#utility.yul\":15841:15847   */\n      dup3\n        /* \"#utility.yul\":15837:15852   */\n      add\n        /* \"#utility.yul\":15830:15867   */\n      mstore\n        /* \"#utility.yul\":15751:15874   */\n      pop\n      jump\t// out\n        /* \"#utility.yul\":15880:16002   */\n    tag_123:\n        /* \"#utility.yul\":15953:15977   */\n      tag_300\n        /* \"#utility.yul\":15971:15976   */\n      dup2\n        /* \"#utility.yul\":15953:15977   */\n      tag_155\n      jump\t// in\n    tag_300:\n        /* \"#utility.yul\":15946:15951   */\n      dup2\n        /* \"#utility.yul\":15943:15978   */\n      eq\n        /* \"#utility.yul\":15933:15935   */\n      tag_301\n      jumpi\n        /* \"#utility.yul\":15992:15993   */\n      0x00\n        /* \"#utility.yul\":15989:15990   */\n      dup1\n        /* \"#utility.yul\":15982:15994   */\n      revert\n        /* \"#utility.yul\":15933:15935   */\n    tag_301:\n        /* \"#utility.yul\":15923:16002   */\n      pop\n      jump\t// out\n        /* \"#utility.yul\":16008:16130   */\n    tag_131:\n        /* \"#utility.yul\":16081:16105   */\n      tag_303\n        /* \"#utility.yul\":16099:16104   */\n      dup2\n        /* \"#utility.yul\":16081:16105   */\n      tag_222\n      jump\t// in\n    tag_303:\n        /* \"#utility.yul\":16074:16079   */\n      dup2\n        /* \"#utility.yul\":16071:16106   */\n      eq\n        /* \"#utility.yul\":16061:16063   */\n      tag_304\n      jumpi\n        /* \"#utility.yul\":16120:16121   */\n      0x00\n        /* \"#utility.yul\":16117:16118   */\n      dup1\n        /* \"#utility.yul\":16110:16122   */\n      revert\n        /* \"#utility.yul\":16061:16063   */\n    tag_304:\n        /* \"#utility.yul\":16051:16130   */\n      pop\n      jump\t// out\n\n    auxdata: 0xa2646970667358221220cbc058078b22bd4d811ec11c0a0cb7191c0e853891bb3e031ea43c49f917c0b564736f6c63430008020033\n}\n","bytecode":{"linkReferences":{},"object":"608060405234801561001057600080fd5b50336000806101000a81548173ffffffffffffffffffffffffffffffffffffffff021916908373ffffffffffffffffffffffffffffffffffffffff1602179055506112ee806100606000396000f3fe6080604052600436106100555760003560e01c806323c554481461005a578063310f941114610083578063481c6a75146100ae5780635daf08ca146100d9578063d62f209114610116578063df2373a114610141575b600080fd5b34801561006657600080fd5b50610081600480360381019061007c9190610aca565b61015d565b005b34801561008f57600080fd5b50610098610371565b6040516100a59190610dfa565b60405180910390f35b3480156100ba57600080fd5b506100c361055e565b6040516100d09190610dbd565b60405180910390f35b3480156100e557600080fd5b5061010060048036038101906100fb9190610b49565b610582565b60405161010d9190610dbd565b60405180910390f35b34801561012257600080fd5b5061012b6105c1565b6040516101389190610dd8565b60405180910390f35b61015b60048036038101906101569190610aa1565b61064f565b005b60008054906101000a900473ffffffffffffffffffffffffffffffffffffffff1673ffffffffffffffffffffffffffffffffffffffff163373ffffffffffffffffffffffffffffffffffffffff1614156101ec576040517f08c379a00000000000000000000000000000000000000000000000000000000081526004016101e390610e1c565b60405180910390fd5b670de0b6b3a7640000816102009190610fc7565b90506000806040518060a001604052803373ffffffffffffffffffffffffffffffffffffffff168152602001868152602001858152602001848152602001838152509050600281908060018154018082558091505060019003906000526020600020906005020160009091909190915060008201518160000160006101000a81548173ffffffffffffffffffffffffffffffffffffffff021916908373ffffffffffffffffffffffffffffffffffffffff16021790555060208201518160010190805190602001906102d392919061096c565b5060408201518160020190805190602001906102f092919061096c565b50606082015181600301556080820151816004015550506001339080600181540180825580915050600190039060005260206000200160009091909190916101000a81548173ffffffffffffffffffffffffffffffffffffffff021916908373ffffffffffffffffffffffffffffffffffffffff1602179055505050505050565b60606002805480602002602001604051908101604052809291908181526020016000905b8282101561055557838290600052602060002090600502016040518060a00160405290816000820160009054906101000a900473ffffffffffffffffffffffffffffffffffffffff1673ffffffffffffffffffffffffffffffffffffffff1673ffffffffffffffffffffffffffffffffffffffff16815260200160018201805461041e9061109f565b80601f016020809104026020016040519081016040528092919081815260200182805461044a9061109f565b80156104975780601f1061046c57610100808354040283529160200191610497565b820191906000526020600020905b81548152906001019060200180831161047a57829003601f168201915b505050505081526020016002820180546104b09061109f565b80601f01602080910402602001604051908101604052809291908181526020018280546104dc9061109f565b80156105295780601f106104fe57610100808354040283529160200191610529565b820191906000526020600020905b81548152906001019060200180831161050c57829003601f168201915b505050505081526020016003820154815260200160048201548152505081526020019060010190610395565b50505050905090565b60008054906101000a900473ffffffffffffffffffffffffffffffffffffffff1681565b6001818154811061059257600080fd5b906000526020600020016000915054906101000a900473ffffffffffffffffffffffffffffffffffffffff1681565b6060600180548060200260200160405190810160405280929190818152602001828054801561064557602002820191906000526020600020905b8160009054906101000a900473ffffffffffffffffffffffffffffffffffffffff1673ffffffffffffffffffffffffffffffffffffffff16815260200190600101908083116105fb575b5050505050905090565b670de0b6b3a764000034101561069a576040517f08c379a000000000000000000000000000000000000000000000000000000000815260040161069190610e5c565b60405180910390fd5b60005b600280549050811015610968578173ffffffffffffffffffffffffffffffffffffffff16600282815481106106fb577f4e487b7100000000000000000000000000000000000000000000000000000000600052603260045260246000fd5b906000526020600020906005020160000160009054906101000a900473ffffffffffffffffffffffffffffffffffffffff1673ffffffffffffffffffffffffffffffffffffffff1614156109555760028181548110610783577f4e487b7100000000000000000000000000000000000000000000000000000000600052603260045260246000fd5b906000526020600020906005020160030154670de0b6b3a764000034600284815481106107d9577f4e487b7100000000000000000000000000000000000000000000000000000000600052603260045260246000fd5b9060005260206000209060050201600401546107f59190610f71565b6107ff9190610fc7565b1115610840576040517f08c379a000000000000000000000000000000000000000000000000000000000815260040161083790610e3c565b60405180910390fd5b6002818154811061087a577f4e487b7100000000000000000000000000000000000000000000000000000000600052603260045260246000fd5b906000526020600020906005020160000160009054906101000a900473ffffffffffffffffffffffffffffffffffffffff1673ffffffffffffffffffffffffffffffffffffffff166108fc349081150290604051600060405180830381858888f193505050501580156108f1573d6000803e3d6000fd5b50346002828154811061092d577f4e487b7100000000000000000000000000000000000000000000000000000000600052603260045260246000fd5b9060005260206000209060050201600401600082825461094d9190610f71565b925050819055505b808061096090611102565b91505061069d565b5050565b8280546109789061109f565b90600052602060002090601f01602090048101928261099a57600085556109e1565b82601f106109b357805160ff19168380011785556109e1565b828001600101855582156109e1579182015b828111156109e05782518255916020019190600101906109c5565b5b5090506109ee91906109f2565b5090565b5b80821115610a0b5760008160009055506001016109f3565b5090565b6000610a22610a1d84610ea1565b610e7c565b905082815260208101848484011115610a3a57600080fd5b610a4584828561105d565b509392505050565b600081359050610a5c8161128a565b92915050565b600082601f830112610a7357600080fd5b8135610a83848260208601610a0f565b91505092915050565b600081359050610a9b816112a1565b92915050565b600060208284031215610ab357600080fd5b6000610ac184828501610a4d565b91505092915050565b600080600060608486031215610adf57600080fd5b600084013567ffffffffffffffff811115610af957600080fd5b610b0586828701610a62565b935050602084013567ffffffffffffffff811115610b2257600080fd5b610b2e86828701610a62565b9250506040610b3f86828701610a8c565b9150509250925092565b600060208284031215610b5b57600080fd5b6000610b6984828501610a8c565b91505092915050565b6000610b7e8383610b9e565b60208301905092915050565b6000610b968383610d31565b905092915050565b610ba781611021565b82525050565b610bb681611021565b82525050565b6000610bc782610ef2565b610bd18185610f2d565b9350610bdc83610ed2565b8060005b83811015610c0d578151610bf48882610b72565b9750610bff83610f13565b925050600181019050610be0565b5085935050505092915050565b6000610c2582610efd565b610c2f8185610f3e565b935083602082028501610c4185610ee2565b8060005b85811015610c7d5784840389528151610c5e8582610b8a565b9450610c6983610f20565b925060208a01995050600181019050610c45565b50829750879550505050505092915050565b6000610c9a82610f08565b610ca48185610f4f565b9350610cb481856020860161106c565b610cbd816111d8565b840191505092915050565b6000610cd5601e83610f60565b9150610ce0826111e9565b602082019050919050565b6000610cf8601d83610f60565b9150610d0382611212565b602082019050919050565b6000610d1b602a83610f60565b9150610d268261123b565b604082019050919050565b600060a083016000830151610d496000860182610b9e565b5060208301518482036020860152610d618282610c8f565b91505060408301518482036040860152610d7b8282610c8f565b9150506060830151610d906060860182610dae565b506080830151610da36080860182610dae565b508091505092915050565b610db781611053565b82525050565b6000602082019050610dd26000830184610bad565b92915050565b60006020820190508181036000830152610df28184610bbc565b905092915050565b60006020820190508181036000830152610e148184610c1a565b905092915050565b60006020820190508181036000830152610e3581610cc8565b9050919050565b60006020820190508181036000830152610e5581610ceb565b9050919050565b60006020820190508181036000830152610e7581610d0e565b9050919050565b6000610e86610e97565b9050610e9282826110d1565b919050565b6000604051905090565b600067ffffffffffffffff821115610ebc57610ebb6111a9565b5b610ec5826111d8565b9050602081019050919050565b6000819050602082019050919050565b6000819050602082019050919050565b600081519050919050565b600081519050919050565b600081519050919050565b6000602082019050919050565b6000602082019050919050565b600082825260208201905092915050565b600082825260208201905092915050565b600082825260208201905092915050565b600082825260208201905092915050565b6000610f7c82611053565b9150610f8783611053565b9250827fffffffffffffffffffffffffffffffffffffffffffffffffffffffffffffffff03821115610fbc57610fbb61114b565b5b828201905092915050565b6000610fd282611053565b9150610fdd83611053565b9250817fffffffffffffffffffffffffffffffffffffffffffffffffffffffffffffffff04831182151516156110165761101561114b565b5b828202905092915050565b600061102c82611033565b9050919050565b600073ffffffffffffffffffffffffffffffffffffffff82169050919050565b6000819050919050565b82818337600083830152505050565b60005b8381101561108a57808201518184015260208101905061106f565b83811115611099576000848401525b50505050565b600060028204905060018216806110b757607f821691505b602082108114156110cb576110ca61117a565b5b50919050565b6110da826111d8565b810181811067ffffffffffffffff821117156110f9576110f86111a9565b5b80604052505050565b600061110d82611053565b91507fffffffffffffffffffffffffffffffffffffffffffffffffffffffffffffffff8214156111405761113f61114b565b5b600182019050919050565b7f4e487b7100000000000000000000000000000000000000000000000000000000600052601160045260246000fd5b7f4e487b7100000000000000000000000000000000000000000000000000000000600052602260045260246000fd5b7f4e487b7100000000000000000000000000000000000000000000000000000000600052604160045260246000fd5b6000601f19601f8301169050919050565b7f4d616e616765722063616e206e6f74206372656174652043616d7061696e0000600082015250565b7f526571756972656420616d6f756e74206c696d69742065786365656473000000600082015250565b7f596f757220636f6e747269627574696f6e206d7573742062652031206f72206d60008201527f6f72652065746865727300000000000000000000000000000000000000000000602082015250565b61129381611021565b811461129e57600080fd5b50565b6112aa81611053565b81146112b557600080fd5b5056fea2646970667358221220cbc058078b22bd4d811ec11c0a0cb7191c0e853891bb3e031ea43c49f917c0b564736f6c63430008020033","opcodes":"PUSH1 0x80 PUSH1 0x40 MSTORE CALLVALUE DUP1 ISZERO PUSH2 0x10 JUMPI PUSH1 0x0 DUP1 REVERT JUMPDEST POP CALLER PUSH1 0x0 DUP1 PUSH2 0x100 EXP DUP2 SLOAD DUP2 PUSH20 0xFFFFFFFFFFFFFFFFFFFFFFFFFFFFFFFFFFFFFFFF MUL NOT AND SWAP1 DUP4 PUSH20 0xFFFFFFFFFFFFFFFFFFFFFFFFFFFFFFFFFFFFFFFF AND MUL OR SWAP1 SSTORE POP PUSH2 0x12EE DUP1 PUSH2 0x60 PUSH1 0x0 CODECOPY PUSH1 0x0 RETURN INVALID PUSH1 0x80 PUSH1 0x40 MSTORE PUSH1 0x4 CALLDATASIZE LT PUSH2 0x55 JUMPI PUSH1 0x0 CALLDATALOAD PUSH1 0xE0 SHR DUP1 PUSH4 0x23C55448 EQ PUSH2 0x5A JUMPI DUP1 PUSH4 0x310F9411 EQ PUSH2 0x83 JUMPI DUP1 PUSH4 0x481C6A75 EQ PUSH2 0xAE JUMPI DUP1 PUSH4 0x5DAF08CA EQ PUSH2 0xD9 JUMPI DUP1 PUSH4 0xD62F2091 EQ PUSH2 0x116 JUMPI DUP1 PUSH4 0xDF2373A1 EQ PUSH2 0x141 JUMPI JUMPDEST PUSH1 0x0 DUP1 REVERT JUMPDEST CALLVALUE DUP1 ISZERO PUSH2 0x66 JUMPI PUSH1 0x0 DUP1 REVERT JUMPDEST POP PUSH2 0x81 PUSH1 0x4 DUP1 CALLDATASIZE SUB DUP2 ADD SWAP1 PUSH2 0x7C SWAP2 SWAP1 PUSH2 0xACA JUMP JUMPDEST PUSH2 0x15D JUMP JUMPDEST STOP JUMPDEST CALLVALUE DUP1 ISZERO PUSH2 0x8F JUMPI PUSH1 0x0 DUP1 REVERT JUMPDEST POP PUSH2 0x98 PUSH2 0x371 JUMP JUMPDEST PUSH1 0x40 MLOAD PUSH2 0xA5 SWAP2 SWAP1 PUSH2 0xDFA JUMP JUMPDEST PUSH1 0x40 MLOAD DUP1 SWAP2 SUB SWAP1 RETURN JUMPDEST CALLVALUE DUP1 ISZERO PUSH2 0xBA JUMPI PUSH1 0x0 DUP1 REVERT JUMPDEST POP PUSH2 0xC3 PUSH2 0x55E JUMP JUMPDEST PUSH1 0x40 MLOAD PUSH2 0xD0 SWAP2 SWAP1 PUSH2 0xDBD JUMP JUMPDEST PUSH1 0x40 MLOAD DUP1 SWAP2 SUB SWAP1 RETURN JUMPDEST CALLVALUE DUP1 ISZERO PUSH2 0xE5 JUMPI PUSH1 0x0 DUP1 REVERT JUMPDEST POP PUSH2 0x100 PUSH1 0x4 DUP1 CALLDATASIZE SUB DUP2 ADD SWAP1 PUSH2 0xFB SWAP2 SWAP1 PUSH2 0xB49 JUMP JUMPDEST PUSH2 0x582 JUMP JUMPDEST PUSH1 0x40 MLOAD PUSH2 0x10D SWAP2 SWAP1 PUSH2 0xDBD JUMP JUMPDEST PUSH1 0x40 MLOAD DUP1 SWAP2 SUB SWAP1 RETURN JUMPDEST CALLVALUE DUP1 ISZERO PUSH2 0x122 JUMPI PUSH1 0x0 DUP1 REVERT JUMPDEST POP PUSH2 0x12B PUSH2 0x5C1 JUMP JUMPDEST PUSH1 0x40 MLOAD PUSH2 0x138 SWAP2 SWAP1 PUSH2 0xDD8 JUMP JUMPDEST PUSH1 0x40 MLOAD DUP1 SWAP2 SUB SWAP1 RETURN JUMPDEST PUSH2 0x15B PUSH1 0x4 DUP1 CALLDATASIZE SUB DUP2 ADD SWAP1 PUSH2 0x156 SWAP2 SWAP1 PUSH2 0xAA1 JUMP JUMPDEST PUSH2 0x64F JUMP JUMPDEST STOP JUMPDEST PUSH1 0x0 DUP1 SLOAD SWAP1 PUSH2 0x100 EXP SWAP1 DIV PUSH20 0xFFFFFFFFFFFFFFFFFFFFFFFFFFFFFFFFFFFFFFFF AND PUSH20 0xFFFFFFFFFFFFFFFFFFFFFFFFFFFFFFFFFFFFFFFF AND CALLER PUSH20 0xFFFFFFFFFFFFFFFFFFFFFFFFFFFFFFFFFFFFFFFF AND EQ ISZERO PUSH2 0x1EC JUMPI PUSH1 0x40 MLOAD PUSH32 0x8C379A000000000000000000000000000000000000000000000000000000000 DUP2 MSTORE PUSH1 0x4 ADD PUSH2 0x1E3 SWAP1 PUSH2 0xE1C JUMP JUMPDEST PUSH1 0x40 MLOAD DUP1 SWAP2 SUB SWAP1 REVERT JUMPDEST PUSH8 0xDE0B6B3A7640000 DUP2 PUSH2 0x200 SWAP2 SWAP1 PUSH2 0xFC7 JUMP JUMPDEST SWAP1 POP PUSH1 0x0 DUP1 PUSH1 0x40 MLOAD DUP1 PUSH1 0xA0 ADD PUSH1 0x40 MSTORE DUP1 CALLER PUSH20 0xFFFFFFFFFFFFFFFFFFFFFFFFFFFFFFFFFFFFFFFF AND DUP2 MSTORE PUSH1 0x20 ADD DUP7 DUP2 MSTORE PUSH1 0x20 ADD DUP6 DUP2 MSTORE PUSH1 0x20 ADD DUP5 DUP2 MSTORE PUSH1 0x20 ADD DUP4 DUP2 MSTORE POP SWAP1 POP PUSH1 0x2 DUP2 SWAP1 DUP1 PUSH1 0x1 DUP2 SLOAD ADD DUP1 DUP3 SSTORE DUP1 SWAP2 POP POP PUSH1 0x1 SWAP1 SUB SWAP1 PUSH1 0x0 MSTORE PUSH1 0x20 PUSH1 0x0 KECCAK256 SWAP1 PUSH1 0x5 MUL ADD PUSH1 0x0 SWAP1 SWAP2 SWAP1 SWAP2 SWAP1 SWAP2 POP PUSH1 0x0 DUP3 ADD MLOAD DUP2 PUSH1 0x0 ADD PUSH1 0x0 PUSH2 0x100 EXP DUP2 SLOAD DUP2 PUSH20 0xFFFFFFFFFFFFFFFFFFFFFFFFFFFFFFFFFFFFFFFF MUL NOT AND SWAP1 DUP4 PUSH20 0xFFFFFFFFFFFFFFFFFFFFFFFFFFFFFFFFFFFFFFFF AND MUL OR SWAP1 SSTORE POP PUSH1 0x20 DUP3 ADD MLOAD DUP2 PUSH1 0x1 ADD SWAP1 DUP1 MLOAD SWAP1 PUSH1 0x20 ADD SWAP1 PUSH2 0x2D3 SWAP3 SWAP2 SWAP1 PUSH2 0x96C JUMP JUMPDEST POP PUSH1 0x40 DUP3 ADD MLOAD DUP2 PUSH1 0x2 ADD SWAP1 DUP1 MLOAD SWAP1 PUSH1 0x20 ADD SWAP1 PUSH2 0x2F0 SWAP3 SWAP2 SWAP1 PUSH2 0x96C JUMP JUMPDEST POP PUSH1 0x60 DUP3 ADD MLOAD DUP2 PUSH1 0x3 ADD SSTORE PUSH1 0x80 DUP3 ADD MLOAD DUP2 PUSH1 0x4 ADD SSTORE POP POP PUSH1 0x1 CALLER SWAP1 DUP1 PUSH1 0x1 DUP2 SLOAD ADD DUP1 DUP3 SSTORE DUP1 SWAP2 POP POP PUSH1 0x1 SWAP1 SUB SWAP1 PUSH1 0x0 MSTORE PUSH1 0x20 PUSH1 0x0 KECCAK256 ADD PUSH1 0x0 SWAP1 SWAP2 SWAP1 SWAP2 SWAP1 SWAP2 PUSH2 0x100 EXP DUP2 SLOAD DUP2 PUSH20 0xFFFFFFFFFFFFFFFFFFFFFFFFFFFFFFFFFFFFFFFF MUL NOT AND SWAP1 DUP4 PUSH20 0xFFFFFFFFFFFFFFFFFFFFFFFFFFFFFFFFFFFFFFFF AND MUL OR SWAP1 SSTORE POP POP POP POP POP POP JUMP JUMPDEST PUSH1 0x60 PUSH1 0x2 DUP1 SLOAD DUP1 PUSH1 0x20 MUL PUSH1 0x20 ADD PUSH1 0x40 MLOAD SWAP1 DUP2 ADD PUSH1 0x40 MSTORE DUP1 SWAP3 SWAP2 SWAP1 DUP2 DUP2 MSTORE PUSH1 0x20 ADD PUSH1 0x0 SWAP1 JUMPDEST DUP3 DUP3 LT ISZERO PUSH2 0x555 JUMPI DUP4 DUP3 SWAP1 PUSH1 0x0 MSTORE PUSH1 0x20 PUSH1 0x0 KECCAK256 SWAP1 PUSH1 0x5 MUL ADD PUSH1 0x40 MLOAD DUP1 PUSH1 0xA0 ADD PUSH1 0x40 MSTORE SWAP1 DUP2 PUSH1 0x0 DUP3 ADD PUSH1 0x0 SWAP1 SLOAD SWAP1 PUSH2 0x100 EXP SWAP1 DIV PUSH20 0xFFFFFFFFFFFFFFFFFFFFFFFFFFFFFFFFFFFFFFFF AND PUSH20 0xFFFFFFFFFFFFFFFFFFFFFFFFFFFFFFFFFFFFFFFF AND PUSH20 0xFFFFFFFFFFFFFFFFFFFFFFFFFFFFFFFFFFFFFFFF AND DUP2 MSTORE PUSH1 0x20 ADD PUSH1 0x1 DUP3 ADD DUP1 SLOAD PUSH2 0x41E SWAP1 PUSH2 0x109F JUMP JUMPDEST DUP1 PUSH1 0x1F ADD PUSH1 0x20 DUP1 SWAP2 DIV MUL PUSH1 0x20 ADD PUSH1 0x40 MLOAD SWAP1 DUP2 ADD PUSH1 0x40 MSTORE DUP1 SWAP3 SWAP2 SWAP1 DUP2 DUP2 MSTORE PUSH1 0x20 ADD DUP3 DUP1 SLOAD PUSH2 0x44A SWAP1 PUSH2 0x109F JUMP JUMPDEST DUP1 ISZERO PUSH2 0x497 JUMPI DUP1 PUSH1 0x1F LT PUSH2 0x46C JUMPI PUSH2 0x100 DUP1 DUP4 SLOAD DIV MUL DUP4 MSTORE SWAP2 PUSH1 0x20 ADD SWAP2 PUSH2 0x497 JUMP JUMPDEST DUP3 ADD SWAP2 SWAP1 PUSH1 0x0 MSTORE PUSH1 0x20 PUSH1 0x0 KECCAK256 SWAP1 JUMPDEST DUP2 SLOAD DUP2 MSTORE SWAP1 PUSH1 0x1 ADD SWAP1 PUSH1 0x20 ADD DUP1 DUP4 GT PUSH2 0x47A JUMPI DUP3 SWAP1 SUB PUSH1 0x1F AND DUP3 ADD SWAP2 JUMPDEST POP POP POP POP POP DUP2 MSTORE PUSH1 0x20 ADD PUSH1 0x2 DUP3 ADD DUP1 SLOAD PUSH2 0x4B0 SWAP1 PUSH2 0x109F JUMP JUMPDEST DUP1 PUSH1 0x1F ADD PUSH1 0x20 DUP1 SWAP2 DIV MUL PUSH1 0x20 ADD PUSH1 0x40 MLOAD SWAP1 DUP2 ADD PUSH1 0x40 MSTORE DUP1 SWAP3 SWAP2 SWAP1 DUP2 DUP2 MSTORE PUSH1 0x20 ADD DUP3 DUP1 SLOAD PUSH2 0x4DC SWAP1 PUSH2 0x109F JUMP JUMPDEST DUP1 ISZERO PUSH2 0x529 JUMPI DUP1 PUSH1 0x1F LT PUSH2 0x4FE JUMPI PUSH2 0x100 DUP1 DUP4 SLOAD DIV MUL DUP4 MSTORE SWAP2 PUSH1 0x20 ADD SWAP2 PUSH2 0x529 JUMP JUMPDEST DUP3 ADD SWAP2 SWAP1 PUSH1 0x0 MSTORE PUSH1 0x20 PUSH1 0x0 KECCAK256 SWAP1 JUMPDEST DUP2 SLOAD DUP2 MSTORE SWAP1 PUSH1 0x1 ADD SWAP1 PUSH1 0x20 ADD DUP1 DUP4 GT PUSH2 0x50C JUMPI DUP3 SWAP1 SUB PUSH1 0x1F AND DUP3 ADD SWAP2 JUMPDEST POP POP POP POP POP DUP2 MSTORE PUSH1 0x20 ADD PUSH1 0x3 DUP3 ADD SLOAD DUP2 MSTORE PUSH1 0x20 ADD PUSH1 0x4 DUP3 ADD SLOAD DUP2 MSTORE POP POP DUP2 MSTORE PUSH1 0x20 ADD SWAP1 PUSH1 0x1 ADD SWAP1 PUSH2 0x395 JUMP JUMPDEST POP POP POP POP SWAP1 POP SWAP1 JUMP JUMPDEST PUSH1 0x0 DUP1 SLOAD SWAP1 PUSH2 0x100 EXP SWAP1 DIV PUSH20 0xFFFFFFFFFFFFFFFFFFFFFFFFFFFFFFFFFFFFFFFF AND DUP2 JUMP JUMPDEST PUSH1 0x1 DUP2 DUP2 SLOAD DUP2 LT PUSH2 0x592 JUMPI PUSH1 0x0 DUP1 REVERT JUMPDEST SWAP1 PUSH1 0x0 MSTORE PUSH1 0x20 PUSH1 0x0 KECCAK256 ADD PUSH1 0x0 SWAP2 POP SLOAD SWAP1 PUSH2 0x100 EXP SWAP1 DIV PUSH20 0xFFFFFFFFFFFFFFFFFFFFFFFFFFFFFFFFFFFFFFFF AND DUP2 JUMP JUMPDEST PUSH1 0x60 PUSH1 0x1 DUP1 SLOAD DUP1 PUSH1 0x20 MUL PUSH1 0x20 ADD PUSH1 0x40 MLOAD SWAP1 DUP2 ADD PUSH1 0x40 MSTORE DUP1 SWAP3 SWAP2 SWAP1 DUP2 DUP2 MSTORE PUSH1 0x20 ADD DUP3 DUP1 SLOAD DUP1 ISZERO PUSH2 0x645 JUMPI PUSH1 0x20 MUL DUP3 ADD SWAP2 SWAP1 PUSH1 0x0 MSTORE PUSH1 0x20 PUSH1 0x0 KECCAK256 SWAP1 JUMPDEST DUP2 PUSH1 0x0 SWAP1 SLOAD SWAP1 PUSH2 0x100 EXP SWAP1 DIV PUSH20 0xFFFFFFFFFFFFFFFFFFFFFFFFFFFFFFFFFFFFFFFF AND PUSH20 0xFFFFFFFFFFFFFFFFFFFFFFFFFFFFFFFFFFFFFFFF AND DUP2 MSTORE PUSH1 0x20 ADD SWAP1 PUSH1 0x1 ADD SWAP1 DUP1 DUP4 GT PUSH2 0x5FB JUMPI JUMPDEST POP POP POP POP POP SWAP1 POP SWAP1 JUMP JUMPDEST PUSH8 0xDE0B6B3A7640000 CALLVALUE LT ISZERO PUSH2 0x69A JUMPI PUSH1 0x40 MLOAD PUSH32 0x8C379A000000000000000000000000000000000000000000000000000000000 DUP2 MSTORE PUSH1 0x4 ADD PUSH2 0x691 SWAP1 PUSH2 0xE5C JUMP JUMPDEST PUSH1 0x40 MLOAD DUP1 SWAP2 SUB SWAP1 REVERT JUMPDEST PUSH1 0x0 JUMPDEST PUSH1 0x2 DUP1 SLOAD SWAP1 POP DUP2 LT ISZERO PUSH2 0x968 JUMPI DUP2 PUSH20 0xFFFFFFFFFFFFFFFFFFFFFFFFFFFFFFFFFFFFFFFF AND PUSH1 0x2 DUP3 DUP2 SLOAD DUP2 LT PUSH2 0x6FB JUMPI PUSH32 0x4E487B7100000000000000000000000000000000000000000000000000000000 PUSH1 0x0 MSTORE PUSH1 0x32 PUSH1 0x4 MSTORE PUSH1 0x24 PUSH1 0x0 REVERT JUMPDEST SWAP1 PUSH1 0x0 MSTORE PUSH1 0x20 PUSH1 0x0 KECCAK256 SWAP1 PUSH1 0x5 MUL ADD PUSH1 0x0 ADD PUSH1 0x0 SWAP1 SLOAD SWAP1 PUSH2 0x100 EXP SWAP1 DIV PUSH20 0xFFFFFFFFFFFFFFFFFFFFFFFFFFFFFFFFFFFFFFFF AND PUSH20 0xFFFFFFFFFFFFFFFFFFFFFFFFFFFFFFFFFFFFFFFF AND EQ ISZERO PUSH2 0x955 JUMPI PUSH1 0x2 DUP2 DUP2 SLOAD DUP2 LT PUSH2 0x783 JUMPI PUSH32 0x4E487B7100000000000000000000000000000000000000000000000000000000 PUSH1 0x0 MSTORE PUSH1 0x32 PUSH1 0x4 MSTORE PUSH1 0x24 PUSH1 0x0 REVERT JUMPDEST SWAP1 PUSH1 0x0 MSTORE PUSH1 0x20 PUSH1 0x0 KECCAK256 SWAP1 PUSH1 0x5 MUL ADD PUSH1 0x3 ADD SLOAD PUSH8 0xDE0B6B3A7640000 CALLVALUE PUSH1 0x2 DUP5 DUP2 SLOAD DUP2 LT PUSH2 0x7D9 JUMPI PUSH32 0x4E487B7100000000000000000000000000000000000000000000000000000000 PUSH1 0x0 MSTORE PUSH1 0x32 PUSH1 0x4 MSTORE PUSH1 0x24 PUSH1 0x0 REVERT JUMPDEST SWAP1 PUSH1 0x0 MSTORE PUSH1 0x20 PUSH1 0x0 KECCAK256 SWAP1 PUSH1 0x5 MUL ADD PUSH1 0x4 ADD SLOAD PUSH2 0x7F5 SWAP2 SWAP1 PUSH2 0xF71 JUMP JUMPDEST PUSH2 0x7FF SWAP2 SWAP1 PUSH2 0xFC7 JUMP JUMPDEST GT ISZERO PUSH2 0x840 JUMPI PUSH1 0x40 MLOAD PUSH32 0x8C379A000000000000000000000000000000000000000000000000000000000 DUP2 MSTORE PUSH1 0x4 ADD PUSH2 0x837 SWAP1 PUSH2 0xE3C JUMP JUMPDEST PUSH1 0x40 MLOAD DUP1 SWAP2 SUB SWAP1 REVERT JUMPDEST PUSH1 0x2 DUP2 DUP2 SLOAD DUP2 LT PUSH2 0x87A JUMPI PUSH32 0x4E487B7100000000000000000000000000000000000000000000000000000000 PUSH1 0x0 MSTORE PUSH1 0x32 PUSH1 0x4 MSTORE PUSH1 0x24 PUSH1 0x0 REVERT JUMPDEST SWAP1 PUSH1 0x0 MSTORE PUSH1 0x20 PUSH1 0x0 KECCAK256 SWAP1 PUSH1 0x5 MUL ADD PUSH1 0x0 ADD PUSH1 0x0 SWAP1 SLOAD SWAP1 PUSH2 0x100 EXP SWAP1 DIV PUSH20 0xFFFFFFFFFFFFFFFFFFFFFFFFFFFFFFFFFFFFFFFF AND PUSH20 0xFFFFFFFFFFFFFFFFFFFFFFFFFFFFFFFFFFFFFFFF AND PUSH2 0x8FC CALLVALUE SWAP1 DUP2 ISZERO MUL SWAP1 PUSH1 0x40 MLOAD PUSH1 0x0 PUSH1 0x40 MLOAD DUP1 DUP4 SUB DUP2 DUP6 DUP9 DUP9 CALL SWAP4 POP POP POP POP ISZERO DUP1 ISZERO PUSH2 0x8F1 JUMPI RETURNDATASIZE PUSH1 0x0 DUP1 RETURNDATACOPY RETURNDATASIZE PUSH1 0x0 REVERT JUMPDEST POP CALLVALUE PUSH1 0x2 DUP3 DUP2 SLOAD DUP2 LT PUSH2 0x92D JUMPI PUSH32 0x4E487B7100000000000000000000000000000000000000000000000000000000 PUSH1 0x0 MSTORE PUSH1 0x32 PUSH1 0x4 MSTORE PUSH1 0x24 PUSH1 0x0 REVERT JUMPDEST SWAP1 PUSH1 0x0 MSTORE PUSH1 0x20 PUSH1 0x0 KECCAK256 SWAP1 PUSH1 0x5 MUL ADD PUSH1 0x4 ADD PUSH1 0x0 DUP3 DUP3 SLOAD PUSH2 0x94D SWAP2 SWAP1 PUSH2 0xF71 JUMP JUMPDEST SWAP3 POP POP DUP2 SWAP1 SSTORE POP JUMPDEST DUP1 DUP1 PUSH2 0x960 SWAP1 PUSH2 0x1102 JUMP JUMPDEST SWAP2 POP POP PUSH2 0x69D JUMP JUMPDEST POP POP JUMP JUMPDEST DUP3 DUP1 SLOAD PUSH2 0x978 SWAP1 PUSH2 0x109F JUMP JUMPDEST SWAP1 PUSH1 0x0 MSTORE PUSH1 0x20 PUSH1 0x0 KECCAK256 SWAP1 PUSH1 0x1F ADD PUSH1 0x20 SWAP1 DIV DUP2 ADD SWAP3 DUP3 PUSH2 0x99A JUMPI PUSH1 0x0 DUP6 SSTORE PUSH2 0x9E1 JUMP JUMPDEST DUP3 PUSH1 0x1F LT PUSH2 0x9B3 JUMPI DUP1 MLOAD PUSH1 0xFF NOT AND DUP4 DUP1 ADD OR DUP6 SSTORE PUSH2 0x9E1 JUMP JUMPDEST DUP3 DUP1 ADD PUSH1 0x1 ADD DUP6 SSTORE DUP3 ISZERO PUSH2 0x9E1 JUMPI SWAP2 DUP3 ADD JUMPDEST DUP3 DUP2 GT ISZERO PUSH2 0x9E0 JUMPI DUP3 MLOAD DUP3 SSTORE SWAP2 PUSH1 0x20 ADD SWAP2 SWAP1 PUSH1 0x1 ADD SWAP1 PUSH2 0x9C5 JUMP JUMPDEST JUMPDEST POP SWAP1 POP PUSH2 0x9EE SWAP2 SWAP1 PUSH2 0x9F2 JUMP JUMPDEST POP SWAP1 JUMP JUMPDEST JUMPDEST DUP1 DUP3 GT ISZERO PUSH2 0xA0B JUMPI PUSH1 0x0 DUP2 PUSH1 0x0 SWAP1 SSTORE POP PUSH1 0x1 ADD PUSH2 0x9F3 JUMP JUMPDEST POP SWAP1 JUMP JUMPDEST PUSH1 0x0 PUSH2 0xA22 PUSH2 0xA1D DUP5 PUSH2 0xEA1 JUMP JUMPDEST PUSH2 0xE7C JUMP JUMPDEST SWAP1 POP DUP3 DUP2 MSTORE PUSH1 0x20 DUP2 ADD DUP5 DUP5 DUP5 ADD GT ISZERO PUSH2 0xA3A JUMPI PUSH1 0x0 DUP1 REVERT JUMPDEST PUSH2 0xA45 DUP5 DUP3 DUP6 PUSH2 0x105D JUMP JUMPDEST POP SWAP4 SWAP3 POP POP POP JUMP JUMPDEST PUSH1 0x0 DUP2 CALLDATALOAD SWAP1 POP PUSH2 0xA5C DUP2 PUSH2 0x128A JUMP JUMPDEST SWAP3 SWAP2 POP POP JUMP JUMPDEST PUSH1 0x0 DUP3 PUSH1 0x1F DUP4 ADD SLT PUSH2 0xA73 JUMPI PUSH1 0x0 DUP1 REVERT JUMPDEST DUP2 CALLDATALOAD PUSH2 0xA83 DUP5 DUP3 PUSH1 0x20 DUP7 ADD PUSH2 0xA0F JUMP JUMPDEST SWAP2 POP POP SWAP3 SWAP2 POP POP JUMP JUMPDEST PUSH1 0x0 DUP2 CALLDATALOAD SWAP1 POP PUSH2 0xA9B DUP2 PUSH2 0x12A1 JUMP JUMPDEST SWAP3 SWAP2 POP POP JUMP JUMPDEST PUSH1 0x0 PUSH1 0x20 DUP3 DUP5 SUB SLT ISZERO PUSH2 0xAB3 JUMPI PUSH1 0x0 DUP1 REVERT JUMPDEST PUSH1 0x0 PUSH2 0xAC1 DUP5 DUP3 DUP6 ADD PUSH2 0xA4D JUMP JUMPDEST SWAP2 POP POP SWAP3 SWAP2 POP POP JUMP JUMPDEST PUSH1 0x0 DUP1 PUSH1 0x0 PUSH1 0x60 DUP5 DUP7 SUB SLT ISZERO PUSH2 0xADF JUMPI PUSH1 0x0 DUP1 REVERT JUMPDEST PUSH1 0x0 DUP5 ADD CALLDATALOAD PUSH8 0xFFFFFFFFFFFFFFFF DUP2 GT ISZERO PUSH2 0xAF9 JUMPI PUSH1 0x0 DUP1 REVERT JUMPDEST PUSH2 0xB05 DUP7 DUP3 DUP8 ADD PUSH2 0xA62 JUMP JUMPDEST SWAP4 POP POP PUSH1 0x20 DUP5 ADD CALLDATALOAD PUSH8 0xFFFFFFFFFFFFFFFF DUP2 GT ISZERO PUSH2 0xB22 JUMPI PUSH1 0x0 DUP1 REVERT JUMPDEST PUSH2 0xB2E DUP7 DUP3 DUP8 ADD PUSH2 0xA62 JUMP JUMPDEST SWAP3 POP POP PUSH1 0x40 PUSH2 0xB3F DUP7 DUP3 DUP8 ADD PUSH2 0xA8C JUMP JUMPDEST SWAP2 POP POP SWAP3 POP SWAP3 POP SWAP3 JUMP JUMPDEST PUSH1 0x0 PUSH1 0x20 DUP3 DUP5 SUB SLT ISZERO PUSH2 0xB5B JUMPI PUSH1 0x0 DUP1 REVERT JUMPDEST PUSH1 0x0 PUSH2 0xB69 DUP5 DUP3 DUP6 ADD PUSH2 0xA8C JUMP JUMPDEST SWAP2 POP POP SWAP3 SWAP2 POP POP JUMP JUMPDEST PUSH1 0x0 PUSH2 0xB7E DUP4 DUP4 PUSH2 0xB9E JUMP JUMPDEST PUSH1 0x20 DUP4 ADD SWAP1 POP SWAP3 SWAP2 POP POP JUMP JUMPDEST PUSH1 0x0 PUSH2 0xB96 DUP4 DUP4 PUSH2 0xD31 JUMP JUMPDEST SWAP1 POP SWAP3 SWAP2 POP POP JUMP JUMPDEST PUSH2 0xBA7 DUP2 PUSH2 0x1021 JUMP JUMPDEST DUP3 MSTORE POP POP JUMP JUMPDEST PUSH2 0xBB6 DUP2 PUSH2 0x1021 JUMP JUMPDEST DUP3 MSTORE POP POP JUMP JUMPDEST PUSH1 0x0 PUSH2 0xBC7 DUP3 PUSH2 0xEF2 JUMP JUMPDEST PUSH2 0xBD1 DUP2 DUP6 PUSH2 0xF2D JUMP JUMPDEST SWAP4 POP PUSH2 0xBDC DUP4 PUSH2 0xED2 JUMP JUMPDEST DUP1 PUSH1 0x0 JUMPDEST DUP4 DUP2 LT ISZERO PUSH2 0xC0D JUMPI DUP2 MLOAD PUSH2 0xBF4 DUP9 DUP3 PUSH2 0xB72 JUMP JUMPDEST SWAP8 POP PUSH2 0xBFF DUP4 PUSH2 0xF13 JUMP JUMPDEST SWAP3 POP POP PUSH1 0x1 DUP2 ADD SWAP1 POP PUSH2 0xBE0 JUMP JUMPDEST POP DUP6 SWAP4 POP POP POP POP SWAP3 SWAP2 POP POP JUMP JUMPDEST PUSH1 0x0 PUSH2 0xC25 DUP3 PUSH2 0xEFD JUMP JUMPDEST PUSH2 0xC2F DUP2 DUP6 PUSH2 0xF3E JUMP JUMPDEST SWAP4 POP DUP4 PUSH1 0x20 DUP3 MUL DUP6 ADD PUSH2 0xC41 DUP6 PUSH2 0xEE2 JUMP JUMPDEST DUP1 PUSH1 0x0 JUMPDEST DUP6 DUP2 LT ISZERO PUSH2 0xC7D JUMPI DUP5 DUP5 SUB DUP10 MSTORE DUP2 MLOAD PUSH2 0xC5E DUP6 DUP3 PUSH2 0xB8A JUMP JUMPDEST SWAP5 POP PUSH2 0xC69 DUP4 PUSH2 0xF20 JUMP JUMPDEST SWAP3 POP PUSH1 0x20 DUP11 ADD SWAP10 POP POP PUSH1 0x1 DUP2 ADD SWAP1 POP PUSH2 0xC45 JUMP JUMPDEST POP DUP3 SWAP8 POP DUP8 SWAP6 POP POP POP POP POP POP SWAP3 SWAP2 POP POP JUMP JUMPDEST PUSH1 0x0 PUSH2 0xC9A DUP3 PUSH2 0xF08 JUMP JUMPDEST PUSH2 0xCA4 DUP2 DUP6 PUSH2 0xF4F JUMP JUMPDEST SWAP4 POP PUSH2 0xCB4 DUP2 DUP6 PUSH1 0x20 DUP7 ADD PUSH2 0x106C JUMP JUMPDEST PUSH2 0xCBD DUP2 PUSH2 0x11D8 JUMP JUMPDEST DUP5 ADD SWAP2 POP POP SWAP3 SWAP2 POP POP JUMP JUMPDEST PUSH1 0x0 PUSH2 0xCD5 PUSH1 0x1E DUP4 PUSH2 0xF60 JUMP JUMPDEST SWAP2 POP PUSH2 0xCE0 DUP3 PUSH2 0x11E9 JUMP JUMPDEST PUSH1 0x20 DUP3 ADD SWAP1 POP SWAP2 SWAP1 POP JUMP JUMPDEST PUSH1 0x0 PUSH2 0xCF8 PUSH1 0x1D DUP4 PUSH2 0xF60 JUMP JUMPDEST SWAP2 POP PUSH2 0xD03 DUP3 PUSH2 0x1212 JUMP JUMPDEST PUSH1 0x20 DUP3 ADD SWAP1 POP SWAP2 SWAP1 POP JUMP JUMPDEST PUSH1 0x0 PUSH2 0xD1B PUSH1 0x2A DUP4 PUSH2 0xF60 JUMP JUMPDEST SWAP2 POP PUSH2 0xD26 DUP3 PUSH2 0x123B JUMP JUMPDEST PUSH1 0x40 DUP3 ADD SWAP1 POP SWAP2 SWAP1 POP JUMP JUMPDEST PUSH1 0x0 PUSH1 0xA0 DUP4 ADD PUSH1 0x0 DUP4 ADD MLOAD PUSH2 0xD49 PUSH1 0x0 DUP7 ADD DUP3 PUSH2 0xB9E JUMP JUMPDEST POP PUSH1 0x20 DUP4 ADD MLOAD DUP5 DUP3 SUB PUSH1 0x20 DUP7 ADD MSTORE PUSH2 0xD61 DUP3 DUP3 PUSH2 0xC8F JUMP JUMPDEST SWAP2 POP POP PUSH1 0x40 DUP4 ADD MLOAD DUP5 DUP3 SUB PUSH1 0x40 DUP7 ADD MSTORE PUSH2 0xD7B DUP3 DUP3 PUSH2 0xC8F JUMP JUMPDEST SWAP2 POP POP PUSH1 0x60 DUP4 ADD MLOAD PUSH2 0xD90 PUSH1 0x60 DUP7 ADD DUP3 PUSH2 0xDAE JUMP JUMPDEST POP PUSH1 0x80 DUP4 ADD MLOAD PUSH2 0xDA3 PUSH1 0x80 DUP7 ADD DUP3 PUSH2 0xDAE JUMP JUMPDEST POP DUP1 SWAP2 POP POP SWAP3 SWAP2 POP POP JUMP JUMPDEST PUSH2 0xDB7 DUP2 PUSH2 0x1053 JUMP JUMPDEST DUP3 MSTORE POP POP JUMP JUMPDEST PUSH1 0x0 PUSH1 0x20 DUP3 ADD SWAP1 POP PUSH2 0xDD2 PUSH1 0x0 DUP4 ADD DUP5 PUSH2 0xBAD JUMP JUMPDEST SWAP3 SWAP2 POP POP JUMP JUMPDEST PUSH1 0x0 PUSH1 0x20 DUP3 ADD SWAP1 POP DUP2 DUP2 SUB PUSH1 0x0 DUP4 ADD MSTORE PUSH2 0xDF2 DUP2 DUP5 PUSH2 0xBBC JUMP JUMPDEST SWAP1 POP SWAP3 SWAP2 POP POP JUMP JUMPDEST PUSH1 0x0 PUSH1 0x20 DUP3 ADD SWAP1 POP DUP2 DUP2 SUB PUSH1 0x0 DUP4 ADD MSTORE PUSH2 0xE14 DUP2 DUP5 PUSH2 0xC1A JUMP JUMPDEST SWAP1 POP SWAP3 SWAP2 POP POP JUMP JUMPDEST PUSH1 0x0 PUSH1 0x20 DUP3 ADD SWAP1 POP DUP2 DUP2 SUB PUSH1 0x0 DUP4 ADD MSTORE PUSH2 0xE35 DUP2 PUSH2 0xCC8 JUMP JUMPDEST SWAP1 POP SWAP2 SWAP1 POP JUMP JUMPDEST PUSH1 0x0 PUSH1 0x20 DUP3 ADD SWAP1 POP DUP2 DUP2 SUB PUSH1 0x0 DUP4 ADD MSTORE PUSH2 0xE55 DUP2 PUSH2 0xCEB JUMP JUMPDEST SWAP1 POP SWAP2 SWAP1 POP JUMP JUMPDEST PUSH1 0x0 PUSH1 0x20 DUP3 ADD SWAP1 POP DUP2 DUP2 SUB PUSH1 0x0 DUP4 ADD MSTORE PUSH2 0xE75 DUP2 PUSH2 0xD0E JUMP JUMPDEST SWAP1 POP SWAP2 SWAP1 POP JUMP JUMPDEST PUSH1 0x0 PUSH2 0xE86 PUSH2 0xE97 JUMP JUMPDEST SWAP1 POP PUSH2 0xE92 DUP3 DUP3 PUSH2 0x10D1 JUMP JUMPDEST SWAP2 SWAP1 POP JUMP JUMPDEST PUSH1 0x0 PUSH1 0x40 MLOAD SWAP1 POP SWAP1 JUMP JUMPDEST PUSH1 0x0 PUSH8 0xFFFFFFFFFFFFFFFF DUP3 GT ISZERO PUSH2 0xEBC JUMPI PUSH2 0xEBB PUSH2 0x11A9 JUMP JUMPDEST JUMPDEST PUSH2 0xEC5 DUP3 PUSH2 0x11D8 JUMP JUMPDEST SWAP1 POP PUSH1 0x20 DUP2 ADD SWAP1 POP SWAP2 SWAP1 POP JUMP JUMPDEST PUSH1 0x0 DUP2 SWAP1 POP PUSH1 0x20 DUP3 ADD SWAP1 POP SWAP2 SWAP1 POP JUMP JUMPDEST PUSH1 0x0 DUP2 SWAP1 POP PUSH1 0x20 DUP3 ADD SWAP1 POP SWAP2 SWAP1 POP JUMP JUMPDEST PUSH1 0x0 DUP2 MLOAD SWAP1 POP SWAP2 SWAP1 POP JUMP JUMPDEST PUSH1 0x0 DUP2 MLOAD SWAP1 POP SWAP2 SWAP1 POP JUMP JUMPDEST PUSH1 0x0 DUP2 MLOAD SWAP1 POP SWAP2 SWAP1 POP JUMP JUMPDEST PUSH1 0x0 PUSH1 0x20 DUP3 ADD SWAP1 POP SWAP2 SWAP1 POP JUMP JUMPDEST PUSH1 0x0 PUSH1 0x20 DUP3 ADD SWAP1 POP SWAP2 SWAP1 POP JUMP JUMPDEST PUSH1 0x0 DUP3 DUP3 MSTORE PUSH1 0x20 DUP3 ADD SWAP1 POP SWAP3 SWAP2 POP POP JUMP JUMPDEST PUSH1 0x0 DUP3 DUP3 MSTORE PUSH1 0x20 DUP3 ADD SWAP1 POP SWAP3 SWAP2 POP POP JUMP JUMPDEST PUSH1 0x0 DUP3 DUP3 MSTORE PUSH1 0x20 DUP3 ADD SWAP1 POP SWAP3 SWAP2 POP POP JUMP JUMPDEST PUSH1 0x0 DUP3 DUP3 MSTORE PUSH1 0x20 DUP3 ADD SWAP1 POP SWAP3 SWAP2 POP POP JUMP JUMPDEST PUSH1 0x0 PUSH2 0xF7C DUP3 PUSH2 0x1053 JUMP JUMPDEST SWAP2 POP PUSH2 0xF87 DUP4 PUSH2 0x1053 JUMP JUMPDEST SWAP3 POP DUP3 PUSH32 0xFFFFFFFFFFFFFFFFFFFFFFFFFFFFFFFFFFFFFFFFFFFFFFFFFFFFFFFFFFFFFFFF SUB DUP3 GT ISZERO PUSH2 0xFBC JUMPI PUSH2 0xFBB PUSH2 0x114B JUMP JUMPDEST JUMPDEST DUP3 DUP3 ADD SWAP1 POP SWAP3 SWAP2 POP POP JUMP JUMPDEST PUSH1 0x0 PUSH2 0xFD2 DUP3 PUSH2 0x1053 JUMP JUMPDEST SWAP2 POP PUSH2 0xFDD DUP4 PUSH2 0x1053 JUMP JUMPDEST SWAP3 POP DUP2 PUSH32 0xFFFFFFFFFFFFFFFFFFFFFFFFFFFFFFFFFFFFFFFFFFFFFFFFFFFFFFFFFFFFFFFF DIV DUP4 GT DUP3 ISZERO ISZERO AND ISZERO PUSH2 0x1016 JUMPI PUSH2 0x1015 PUSH2 0x114B JUMP JUMPDEST JUMPDEST DUP3 DUP3 MUL SWAP1 POP SWAP3 SWAP2 POP POP JUMP JUMPDEST PUSH1 0x0 PUSH2 0x102C DUP3 PUSH2 0x1033 JUMP JUMPDEST SWAP1 POP SWAP2 SWAP1 POP JUMP JUMPDEST PUSH1 0x0 PUSH20 0xFFFFFFFFFFFFFFFFFFFFFFFFFFFFFFFFFFFFFFFF DUP3 AND SWAP1 POP SWAP2 SWAP1 POP JUMP JUMPDEST PUSH1 0x0 DUP2 SWAP1 POP SWAP2 SWAP1 POP JUMP JUMPDEST DUP3 DUP2 DUP4 CALLDATACOPY PUSH1 0x0 DUP4 DUP4 ADD MSTORE POP POP POP JUMP JUMPDEST PUSH1 0x0 JUMPDEST DUP4 DUP2 LT ISZERO PUSH2 0x108A JUMPI DUP1 DUP3 ADD MLOAD DUP2 DUP5 ADD MSTORE PUSH1 0x20 DUP2 ADD SWAP1 POP PUSH2 0x106F JUMP JUMPDEST DUP4 DUP2 GT ISZERO PUSH2 0x1099 JUMPI PUSH1 0x0 DUP5 DUP5 ADD MSTORE JUMPDEST POP POP POP POP JUMP JUMPDEST PUSH1 0x0 PUSH1 0x2 DUP3 DIV SWAP1 POP PUSH1 0x1 DUP3 AND DUP1 PUSH2 0x10B7 JUMPI PUSH1 0x7F DUP3 AND SWAP2 POP JUMPDEST PUSH1 0x20 DUP3 LT DUP2 EQ ISZERO PUSH2 0x10CB JUMPI PUSH2 0x10CA PUSH2 0x117A JUMP JUMPDEST JUMPDEST POP SWAP2 SWAP1 POP JUMP JUMPDEST PUSH2 0x10DA DUP3 PUSH2 0x11D8 JUMP JUMPDEST DUP2 ADD DUP2 DUP2 LT PUSH8 0xFFFFFFFFFFFFFFFF DUP3 GT OR ISZERO PUSH2 0x10F9 JUMPI PUSH2 0x10F8 PUSH2 0x11A9 JUMP JUMPDEST JUMPDEST DUP1 PUSH1 0x40 MSTORE POP POP POP JUMP JUMPDEST PUSH1 0x0 PUSH2 0x110D DUP3 PUSH2 0x1053 JUMP JUMPDEST SWAP2 POP PUSH32 0xFFFFFFFFFFFFFFFFFFFFFFFFFFFFFFFFFFFFFFFFFFFFFFFFFFFFFFFFFFFFFFFF DUP3 EQ ISZERO PUSH2 0x1140 JUMPI PUSH2 0x113F PUSH2 0x114B JUMP JUMPDEST JUMPDEST PUSH1 0x1 DUP3 ADD SWAP1 POP SWAP2 SWAP1 POP JUMP JUMPDEST PUSH32 0x4E487B7100000000000000000000000000000000000000000000000000000000 PUSH1 0x0 MSTORE PUSH1 0x11 PUSH1 0x4 MSTORE PUSH1 0x24 PUSH1 0x0 REVERT JUMPDEST PUSH32 0x4E487B7100000000000000000000000000000000000000000000000000000000 PUSH1 0x0 MSTORE PUSH1 0x22 PUSH1 0x4 MSTORE PUSH1 0x24 PUSH1 0x0 REVERT JUMPDEST PUSH32 0x4E487B7100000000000000000000000000000000000000000000000000000000 PUSH1 0x0 MSTORE PUSH1 0x41 PUSH1 0x4 MSTORE PUSH1 0x24 PUSH1 0x0 REVERT JUMPDEST PUSH1 0x0 PUSH1 0x1F NOT PUSH1 0x1F DUP4 ADD AND SWAP1 POP SWAP2 SWAP1 POP JUMP JUMPDEST PUSH32 0x4D616E616765722063616E206E6F74206372656174652043616D7061696E0000 PUSH1 0x0 DUP3 ADD MSTORE POP JUMP JUMPDEST PUSH32 0x526571756972656420616D6F756E74206C696D69742065786365656473000000 PUSH1 0x0 DUP3 ADD MSTORE POP JUMP JUMPDEST PUSH32 0x596F757220636F6E747269627574696F6E206D7573742062652031206F72206D PUSH1 0x0 DUP3 ADD MSTORE PUSH32 0x6F72652065746865727300000000000000000000000000000000000000000000 PUSH1 0x20 DUP3 ADD MSTORE POP JUMP JUMPDEST PUSH2 0x1293 DUP2 PUSH2 0x1021 JUMP JUMPDEST DUP2 EQ PUSH2 0x129E JUMPI PUSH1 0x0 DUP1 REVERT JUMPDEST POP JUMP JUMPDEST PUSH2 0x12AA DUP2 PUSH2 0x1053 JUMP JUMPDEST DUP2 EQ PUSH2 0x12B5 JUMPI PUSH1 0x0 DUP1 REVERT JUMPDEST POP JUMP INVALID LOG2 PUSH5 0x6970667358 0x22 SLT KECCAK256 0xCB 0xC0 PC SMOD DUP12 0x22 0xBD 0x4D DUP2 0x1E 0xC1 SHR EXP 0xC 0xB7 NOT SHR 0xE DUP6 CODESIZE SWAP2 0xBB RETURNDATACOPY SUB 0x1E LOG4 EXTCODECOPY 0x49 0xF9 OR 0xC0 0xB5 PUSH5 0x736F6C6343 STOP ADDMOD MUL STOP CALLER "},"gasEstimates":{"creation":{"codeDepositCost":"969200","executionCost":"21874","totalCost":"991074"},"external":{"contributeCampain(address)":"infinite","createProject(string,string,uint256)":"infinite","manager()":"1233","members(uint256)":"2400","viewAllCreators()":"infinite","viewProjects()":"infinite"}},"methodIdentifiers":{"contributeCampain(address)":"df2373a1","createProject(string,string,uint256)":"23c55448","manager()":"481c6a75","members(uint256)":"5daf08ca","viewAllCreators()":"d62f2091","viewProjects()":"310f9411"}},"storageLayout":{"storage":[{"astId":3,"contract":"Lottery.sol:crowedFunding","label":"manager","offset":0,"slot":"0","type":"t_address"},{"astId":6,"contract":"Lottery.sol:crowedFunding","label":"members","offset":0,"slot":"1","type":"t_array(t_address)dyn_storage"},{"astId":10,"contract":"Lottery.sol:crowedFunding","label":"listOfProject","offset":0,"slot":"2","type":"t_array(t_struct(Campain)30_storage)dyn_storage"}],"types":{"t_address":{"encoding":"inplace","label":"address","numberOfBytes":"20"},"t_array(t_address)dyn_storage":{"base":"t_address","encoding":"dynamic_array","label":"address[]","numberOfBytes":"32"},"t_array(t_struct(Campain)30_storage)dyn_storage":{"base":"t_struct(Campain)30_storage","encoding":"dynamic_array","label":"struct crowedFunding.Campain[]","numberOfBytes":"32"},"t_string_storage":{"encoding":"bytes","label":"string","numberOfBytes":"32"},"t_struct(Campain)30_storage":{"encoding":"inplace","label":"struct crowedFunding.Campain","members":[{"astId":21,"contract":"Lottery.sol:crowedFunding","label":"Creator","offset":0,"slot":"0","type":"t_address"},{"astId":23,"contract":"Lottery.sol:crowedFunding","label":"Name","offset":0,"slot":"1","type":"t_string_storage"},{"astId":25,"contract":"Lottery.sol:crowedFunding","label":"Description","offset":0,"slot":"2","type":"t_string_storage"},{"astId":27,"contract":"Lottery.sol:crowedFunding","label":"RequiredAmount","offset":0,"slot":"3","type":"t_uint256"},{"astId":29,"contract":"Lottery.sol:crowedFunding","label":"ReceiveAmount","offset":0,"slot":"4","type":"t_uint256"}],"numberOfBytes":"160"},"t_uint256":{"encoding":"inplace","label":"uint256","numberOfBytes":"32"}}},"userdoc":{"kind":"user","methods":{},"version":1}}